:020000040800F2
:1000000048440020F10100082B3900084D26000863
:1000100029390008C9100008F14300080000000059
:10002000000000000000000000000000053D000886
:10003000991D000800000000313C0008C53D000883
:100040000B0200080B0200080B0200080B0200085C
:100050000B0200080B0200080B0200080B0200084C
:100060000B0200080B0200080B0200080B0200083C
:100070000B0200080B0200080B0200080B0200082C
:100080000B02000800000000E10F00080B0200084E
:100090000B0200080B0200080B0200080B0200080C
:1000A0000B0200080B0200080B0200080B020008FC
:1000B0000B0200080B0200080B0200080B020008EC
:1000C0000B0200080B0200080B0200080B020008DC
:1000D0000B0200080B020008E94100080B020008AF
:1000E0000B0200080B0200080B0200080B020008BC
:1000F0000B0200080B0200080B02000800000000C1
:10010000000000000B020008000000000B020008C5
:100110000B02000800000000B13E00080B020008BE
:100120000B0200080B0200080B0200080B0200087B
:100130000B02000800000000000000000B02000895
:100140000B0200080B020008000000000000000085
:10015000000000000000000000000000000000009F
:100160000000000000000000000000000B0200087A
:100170000B0200080000000000000000000000006A
:10018000000000000B02000800000000000000005A
:10019000000000000000000000000000000000005F
:1001A00000000000000000000B0200080B02000825
:1001B0000B0200080B0200080B0200080000000000
:1001C000000000000B02000800000000000000001A
:1001D0000B0200080B020008DFF810D000F028FC2A
:1001E0000048004749560008AFF30080484400200B
:1001F0000648804706480047FEE7FEE7FEE7FEE7C1
:10020000FEE7FEE7FEE7FEE7FEE7FEE7A13E0008A9
:10021000D901000840EA01039B0703D009E008C99F
:10022000121F08C0042AFAD203E011F8013B00F8BB
:10023000013B521EF9D27047D2B201E000F8012B07
:10024000491EFBD270470022F6E710B513460A4656
:1002500004461946FFF7F0FF204610BD30B50446AE
:100260000020034600E05B1C934203D2E05CCD5CBF
:10027000401BF8D030BD70B5064604F0E9F80468BC
:1002800005460A220021304600F0F6F82C6070BDC9
:1002900070B5C1F30A5201F000450024C1F3130107
:1002A00040F2FF3341F480119A4201DA002070BD20
:1002B00040F233439A42A2F2334203DC524200F04E
:1002C0007CF800E090402C43F1D0404270BD00F03B
:1002D000004230F000400AD0C10D01F56071C0F35A
:1002E000160042EA0151C20840071143704700203E
:1002F0000146704701F0004330B421F0004150EA5C
:10030000010206D00A0DA2F56072C1F31301002AA2
:1003100002DC30BC00207047440F44EAC104C10035
:10032000E01830BC00EBC25000F0DEB830B50B4630
:10033000014600202022012409E021FA02F59D4215
:1003400005D303FA02F5491B04FA02F52844151EE9
:10035000A2F10102F1DC30BD2DE9F05F054600207D
:1003600092469B4688460646814640241BE0284626
:1003700041464746224600F020F853465A46C01AE6
:10038000914110D311461846224600F063FB2D1A06
:1003900067EB01084F4622460120002100F05AFB7E
:1003A00017EB00094E41201EA4F10104DFDC484692
:1003B00031462A464346BDE8F09F202A04DB203A16
:1003C00021FA02F00021704721FA02F3D040C2F175
:1003D0002002914008431946704700000FB40023E3
:1003E00000B589B00CA900910B996FF00042CB6069
:1003F0001E4B06931E4B07930423CDE901321D4A81
:10040000089202466B46002000F0E8FB09B05DF858
:1004100014FB70B586B006464FF0FF300091CDE971
:100420000101002015460C4604903246694604A896
:10043000FFF7D4FF02460498211825B108B10846F9
:1004400000E020462860049800280DD0002A02DD34
:100450000098884208D0081B0094CDE90104324678
:10046000694604A8FFF7BAFF06B070BD150E000874
:10047000330E0008A10A00082DE9F04791460F4607
:1004800080460446002614F8015B2DB100F004FB01
:100490000068405DC007F6D12B2D02D02D2D18D05D
:1004A000641E4A463946204600F0D4FC27B139681C
:1004B000A14201D1C7F8008071054FF002040BD5AD
:1004C0004042002803DD03F0C3FF0460A007BDE83D
:1004D000F08746F48066E4E70028F8DA03F0B8FF16
:1004E00004606FF00040F2E70029A8BF7047401C8D
:1004F000490008BF20F00100704710B4B0FA80FC3A
:1005000000FA0CF050EA010404BF10BC704749B176
:10051000CCF1200421FA04F411FA0CF118BF0121E6
:1005200021430843A3EB0C01CB1D4FEA00614FEAC6
:10053000102042BF002010BC704700EBC350104495
:100540000029A4BF10BC7047401C490008BF20F020
:10055000010010BC7047F0B400F0004221F00041EF
:1005600020F00040CE0DC30DC1F3160141F400018F
:10057000C0F316004C42154640F40000761E09E018
:1005800010EB440002D582F0004240428842F7D886
:1005900040005B1EB342F9DA18B1F0BC0021FFF74E
:1005A000ACBF2846F0BC70472DE9FE4F804681EA7B
:1005B0000300C00F0C46009021F0004123F00045DD
:1005C000B8EB0200A94105D24046214690461C46A0
:1005D0000B46024623F00040104347D0270DC7F3D7
:1005E0000A00C3F30A510290401A019040286BDAC6
:1005F000C3F3130040F4801B0098924620B10023FF
:10060000D2EB030A63EB0B0B01985946C0F1400291
:10061000504600F01FFA06460D4650465946019ACC
:1006200000F027FA10EB08006141002487EA11521C
:1006300084EAE7731A4340D0009A62B3019A012A10
:100640004FEA075215DC001B61EB02014FF000423C
:1006500002EA0752CDE90042001C41F58011324602
:100660002B4600F055FC03B0BDE8F08F4046214614
:10067000F9E7001B61EB0201001C41F58013001833
:100680005B412018A2F5001747EB030140EAD57043
:10069000B6196D4111E06D084FEA360645EAC0759E
:1006A0004FEA0752001B61EB0201001C41F580116B
:1006B00049084FEA30000019514132462B4603B039
:1006C000BDE8F04F00F015BC009801224000002367
:1006D000D0EB020263EBE073009821464FEAE0742E
:1006E000B8EB000061EB0401E9E783F000435BE74E
:1006F00081F0004158E72DE9FE4F81EA030404F040
:10070000004421F0004100944FF0000B23F000431F
:1007100050EA01045ED052EA03045BD0C3F30A54EA
:10072000C1F30A552C44A4F2F3340194A0FB025403
:10073000C1F3130141F48011C3F3130343F4801395
:1007400001FB024400FB034E840A970A44EA8154E9
:1007500047EA8357A4FB076802958D0A05FB0785C6
:100760004FEA932C04FB0C542705029D4FEA0658D0
:1007700047EA1637B5EB08056EEB070C870E920EAD
:1007800047EA811742EA8312A7FB0201B6EB0B018D
:1007900064EB00042B0D43EA0C335E1844EB1C5051
:1007A000DA465146E7FB0201C5F313044FEA0B3367
:1007B00043EA14534FEA0432019C43EA0603A4F1CE
:1007C0000C040294009CCDE900B400F0A1FB03B03E
:1007D000BDE8F08F00200146F9E72DE9F04D81EAF0
:1007E000030404F0004B21F0004514464FF0000ACA
:1007F00023F0004150EA050220D054EA01021DD046
:10080000C5F30A570246C5F31303C1F31300C1F33E
:100810000A5640F4801543F48013A7EB0608101B1A
:10082000D64608F2FD3873EB050002D308F1010843
:1008300001E092185B41B8F1000F03DA0020014695
:10084000BDE8F08D00204FF48011064684460EE08E
:10085000171B73EB050705D3121B63EB0503064358
:100860004CEA010C49084FEA300092185B4150EA0B
:100870000107EDD152EA030012D082EA040083EAB4
:100880000501084305D0101BAB4106D2012200230D
:1008900006E000224FF0004302E06FF00102531027
:1008A0001AEB06004CEB085110EB0A0041EB0B0170
:1008B000BDE8F04D00F01DBB2DE9F041054621F0EB
:1008C00000400C46284309D0C4F30A5040F233419B
:1008D000884205DD28462146BDE8F0812846FBE731
:1008E00040F2FE31884210DC0CDB4FEA043040EA73
:1008F000155050EA053105D0104804F0004101437D
:100900000020E9E700200146E6E7A0F23340464236
:10091000C6F140022846214600F09CF8074688466A
:10092000284621463246FFF748FD43463A4600F046
:10093000E0FA3246BDE8F04100F08CB80000F03F2C
:10094000C1F30A52C1F3130140F2FF3341F48011A5
:100950009A4202DA00200146704740F233439A423D
:10096000A2F2334202DC5242FFF727BD00F072B818
:1009700030B5041E71F1000404DB4FF00044404226
:1009800064EB0101141E73F1000405DB1C464FF0FB
:100990000043524263EB04038B4208BF824230BDE6
:1009A00030B5041E71F1000404DB4FF000444042F6
:1009B00064EB0101141E73F1000405DB1C464FF0CB
:1009C0000043524263EB0403994208BF904230BD9A
:1009D00070B5044601F000450020054304D14FF0F6
:1009E0000045644265EB010103F00045284305D151
:1009F00018464FF00043524263EB0003101B73EBA9
:100A0000010002D24FF0004009E082EA040283EACA
:100A100001034FF000501A4301D14FF0C0404FEA9C
:100A20002062EFF3008162F31F6181F3008870BDE3
:100A3000064C074D06E0E06840F0010394E807002B
:100A400098471034AC42F6D3FFF7CAFB8C7100080C
:100A5000AC710008202A04DB203A00FA02F10020E1
:100A600070479140C2F1200320FA03F319439040EC
:100A70007047202A06DBCB17203A41FA02F043EAFE
:100A8000E07306E041FA02F3D040C2F12002914047
:100A90000843194670470000004870472C71000851
:100AA00010B50446FFF7F8FF0068005D00F0010094
:100AB00010BD00002DE9FF4F087883B09946FF284C
:100AC00005D0491C2D2804D00024002008E0002077
:100AD0000BE00124F9E700EB800003EB4000491C28
:100AE0000B78FF2BF7D104B1404200230293147816
:100AF00019461D462D2C01D02B2C04D1521C2D2C17
:100B000013D000240294AA461478FF2C0FD00A2593
:100B1000A3FB057801FB05814FF0000C03FB0C11D2
:100B2000521CE3194AEB0101EEE70124EAE7814494
:100B300053EA010002D019F5C87F06DA03980021B4
:100B4000C0E9001107B0BDE8F08F0025AE4E2F467A
:100B5000DFF8B882184600F037FACDE90001B9F1A4
:100B6000000002DAC9F1000400E004460023A74AAD
:100B70001AEB030B42EB045A12E0E00707D02A46B7
:100B8000334638464146FFF7B6FD074688462A46B3
:100B9000334610461946FFF7AEFD05460E46641073
:100BA000002CEAD1DDE90001B9F1000F5A465346A5
:100BB00006DAFFF712FE3A464346FFF70EFE05E05F
:100BC000FFF799FD3A464346FFF795FD029A0AB1B1
:100BD00081F00041039AC2E90001B3E72DE9FF4F1C
:100BE0001F468DB0D7E901464FF0FF382E2045460D
:100BF0004FF000090B90B9696D1C0E988847396A4F
:100C0000824688470028F6D1BAF1FF3F0AD024F483
:100C1000D064002E11DDBAF12B0F08D0BAF12D0FE0
:100C20000BD102E0404611B08DE744F48064B9690D
:100C30006D1C0E9888478246761E6946600501D570
:100C40002D2000E02B208DF8000001F1010B0DF1AB
:100C5000200809E0B9696D1C0E98884782460F98F4
:100C600044F40074761E0560002E02DDBAF1300FE8
:100C7000F0D00B998A453ED144F0800406E00F99EC
:100C8000681CA9F1010944F400740860B9696D1C7D
:100C9000761E0E98884782463028F0D02BE00B99BC
:100CA0008A4505D1200603D444F08004761E18E05E
:100CB000504603F0F5FD08B30DF11301761E44F420
:100CC00000748B4508D2AAF130000BF8010B200606
:100CD00007D5A9F1010003E0200602D409F10100C3
:100CE0008146A00502D50F99681C0860B9696D1C82
:100CF0000E9888478246002ED1DC53E0002E51DD4D
:100D0000BAF1650F02D0BAF1450F4BD1A00549D514
:100D1000B9696D1C24F44074761E0E98884782468B
:100D2000002E0CDD2B2804D0BAF12D0F07D144F48E
:100D30008074B9696D1C0E9888478246761EE0055E
:100D400001D52D2100E02B2108F8011BCDF82C80C6
:100D500021E00DF12901761E44F4007488450CD27F
:100D6000AAF1300010F0FF0088F8000002D10B99C2
:100D7000884509D908F1010806E0E00501D52448B5
:100D800001E042F20F708146B9696D1C0E988847E8
:100D900082460F980560002E04DD504603F080FD6A
:100DA0000028D6D1F9690E988847FF208BF80000FB
:100DB00088F800000020069007904B466A4608A974
:100DC00006A8FFF777FEA00502D46FF001002AE71E
:100DD00014F0240F0AD0E00714D1DDE906123868B8
:100DE000031D3B600068C0E900120BE0DDE906016D
:100DF000FFF780FA0146E00704D13868021D3A6027
:100E00000068016028460EE7000014400000F03F33
:100E1000F1D8FFFF426842B1016811F8013B23B1EC
:100E2000521EC0E90012184670470121C160881E99
:100E3000704742685AB1C368016843B983688B42FE
:100E400005D0491E521CC0E90012002070474FF027
:100E5000FF3070472DE9F05F824600780027154685
:100E60008B460AF10104B946302801D09DB113E048
:100E700014F8010B0127782803D0582801D045B178
:100E80000AE00DB1102D07D10027102514F8010B31
:100E900002E0082500E00A250026B0460EE005FB2A
:100EA000080005FB06F1012701EB10461FFA80F848
:100EB000B6F5803F00D3B94614F8010B294600F07F
:100EC00075F80028EBDABBF1000F05D00FB1641EF6
:100ED00000E05446CBF80040B9F1000F06D003F013
:100EE000B7FA02210160C81EBDE8F09F48EA06403B
:100EF000FAE710B5141E73F1000408DA401C41F142
:100F0000000192185B411A4301D120F0010010BD8D
:100F10002DE9F04D92469B4611B1B1FA81F202E003
:100F2000B0FA80F220329046FFF794FD04460F4657
:100F300040EA0A0041EA0B0153465A46084313D0DF
:100F4000114653EA010019D0C8F140025046FFF79C
:100F500034FA05460E46504659464246FFF77AFD9A
:100F6000084305D0012004E020463946BDE8F08D55
:100F70000020054346EAE0762C4337430A98630590
:100F8000E40AA0EB08000022FD0A44EA47540A30B4
:100F900002D500200146E9E7010510196941DDE9A4
:100FA000084500196941BDE8F04DA2E73A2800D292
:100FB000303820F02002412A01D3A2F137008842C4
:100FC00001D34FF0FF3070470EB540F2334202922A
:100FD0000022CDE900221346FFF79AFF03B000BDBF
:100FE00070B54FF0A0442DED028B20684025C0F372
:100FF000801000B125602B4E3068C0F380100028AF
:101000004DD09FED298AB0EE480A00F0C7FE274870
:10101000F0EE480A90ED050A254804F081FCD4F86A
:10102000800181B223488180D4F8802092B202806E
:10103000D4F88431DFED200A9BB24380446C121B4C
:1010400000EE102AB8EEC00A20EE200A80ED090A50
:10105000826CB1EE400AD21A01EE102AB8EEC11A23
:1010600061EE200A9FED161AC0ED0A0A30EE600A02
:10107000DFED120A80ED0B0A90ED080A60EE200AFF
:1010800000EE101AB8EE400A20EE010A9FED0D1A8C
:1010900040EE010AC0ED080A01F042FA3560BDECED
:1010A000028B70BD00010050ACC52738E000002065
:1010B000A43F0020300300204108043C6666663FE0
:1010C000CDCCCC3D7BDC7A3CFEE700000149002022
:1010D00008707047100000202DE9F05F2DED068BA1
:1010E0000546FA4C616800EE101AB8EE400ADFEDD2
:1010F000F80A2046002720EE208A03784FF0020BE2
:101100004FF0010A9FEDF33AF34A2830F6EE002A39
:10111000D2ED481A92ED470A4FF08049B1EE612AAC
:10112000DFEDEE3A9FEDEEAADFEDEE9A9FEDEE1ABF
:10113000EE4EDFEDEF8AA0F10802DFF8B883D2EDC2
:10114000000A112B13D2DFE803F012091352668252
:10115000AADEFBF9F8F7F6F5F4F3F200DB48676076
:10116000203080ED001A00F0A9FF84F800B0C0E242
:10117000D5ED092AD54E30EE620A2036DFEDDE2AA3
:1011800040EE220AC6ED000AF4EEE10AF1EE10FA92
:1011900004DCF4EEC20AF1EE10FA1AD201F084F87F
:1011A00084F801A0102020703068FFF790F841EC1F
:1011B000100BD2A053EC102B03F01CF9686AFFF758
:1011C00086F841EC100BD2A053EC102B03F012F96F
:1011D0008FE295ED080AF0EE411A03F0EDFED049DA
:1011E00060688842C3D301F05FF8032055E080EEC9
:1011F000801AB94821EE030A80ED010A10EE100AA8
:10120000FFF765F841EC100BC6A053EC102B03F070
:10121000F1F8042041E0AD4EB0EE418A80ED008A45
:10122000203680ED018A86ED002AC6ED011A67603E
:10123000E76000F043FFD6ED000A95ED080AF0EEF6
:10124000481AB0EE481A03F0B7FE052025E002293F
:101250008DD36760217BD5ED090A01F0010100EB18
:101260008100F0EE411A90ED000A30EE200A80ED88
:10127000000A964895ED080A203000EB8100D0ED79
:10128000000A03F099FEE06842F21071401CE06031
:1012900088429DDB01F008F80620207029E290ECDE
:1012A000020A30EE600A9FEDA51A8B4DC0EE010ACE
:1012B00081EEA00A20EE030A85ED020A10EE100A64
:1012C000FFF705F841EC100B9DA053EC102B03F039
:1012D00091F895ED560AB8EEC00ADFED9F0AB7EE19
:1012E000001A072060EE200A81EE200AD5ED020ADE
:1012F00095ED011A60EE800A21EE000AC5ED540A50
:1013000085ED550AC9E774486760D0ED010A6F485A
:1013100020EE200AF0EE080A203020EE200A20EE0F
:10132000220A80ED000A00F0C9FE0820B5E7DBE1E3
:101330007EE129E180E06CE061E028E015E0FFE774
:1013400020EE880AF0EE411A60EE220A95ED080AB6
:1013500003F032FE18EE100A48459FDB96ED040AB2
:10136000092084ED060A676097E768EE281A95ED74
:10137000080A03F021FE18EE100A48458EDB96EDB0
:10138000040A84ED070A00F08FFF0A2085E794ED38
:10139000070AD4ED060AB0EE001A30EE600AF0EE4D
:1013A000C00A81EE200A10EE100AFEF790FF41EC11
:1013B000100B03F001F951EC100BFEF769FF464DDD
:1013C0000146286065A003F015F828681E2803DD93
:1013D00084F801B0102060E7D4ED070A94ED060A06
:1013E000F4EEC00AF1EE10FA01D22F6101E0C5F867
:1013F00010A05FA0296902F0FDFF0B204DE7E76018
:1014000084ED041A84ED051A676000F057FE0C2085
:1014100043E720EE880AD4ED051A60EE220A95ED26
:10142000080A03F0C9FD18EE100A484595DB67600D
:101430003088A0600D2030E794ED050AB0EE419AA7
:1014400070EE231AC4ED051A95ED080A03F0B4FDF9
:10145000D4ED040AB4EEE08AF1EE10FA23DD1E4862
:1014600094ED050A3288016820EE0A1A00EE101A7F
:10147000B8EEC00A20EE280AC1EE001ABDEEE10A5D
:1014800010EE100A30EEA90A101AC20FC2EB823217
:101490001318E068B0EBC11F48F8203084ED040A4F
:1014A00001DA401CE0600C4890ED000AB8EEC00A7A
:1014B00020EE280AC0EE280AF4EEC80AF1EE10FA6F
:1014C0007ED884ED049A0E206760E6E610000020C6
:1014D000ACC52738ABAA2A3FB401002098C4833991
:1014E00000FC7F460000003C00000000E0000020FF
:1014F000DB0FC94080030020ACC5A738766F6C7441
:10150000616765735B305D203D2025660A0D000034
:10151000666F632D3E695F61203D2025660A0D00E0
:10152000F824010070686173655F72657369737494
:10153000616E6365203D2025660A0D00CCCC4C3ED3
:1015400070686173655F696E64756374616E63650D
:10155000203D2025660A0D00BD378635506F6C652D
:10156000207061697273203D2025640A0D0000001F
:10157000456E636F646572206469722072657620BF
:101580003D2025640A0D000094ED050A70EE631AF3
:10159000C4ED051A95ED080A03F00EFDD4ED040A1A
:1015A000B4EEE08AF1EE10FA29DDE068002826DDCD
:1015B00094ED050A524920EE0A1A91ED000A00E066
:1015C00091E0B8EEC00A328858F8203020EE280AA0
:1015D000C1EE001ABDEEE10A10EE101A30EEA90AB3
:1015E000511ACA0FC2EB82320A441A4402EBD27279
:1015F000521048F82020401EE06084ED040A404864
:1016000090ED000AB8EEC00A20EE280AC0EE280AC3
:10161000F4EEC80AF1EE10FA6BD83088A1680844DD
:1016200000EBD0704010A06000F03EFE0F2034E6CA
:10163000334A002108461268314D04E0314B53F81B
:101640002030401C1944B0EBC21FF7DBD00191FBE6
:10165000F0F12DA0696102F0CDFEA06843F6FF71A4
:10166000C00190FBF1F0802300218346A060584226
:1016700000EBD07903EBD37C00274FEA69021BE033
:101680002E6806FB01F0C0014FEAE07800EB5860DD
:1016900012EBE01003D500BF00EBC61007E04FF0DF
:1016A000FF3808EBC618804501DA7642F4E7154E9C
:1016B000521C56F820000744B2EB6C0FE0DB97FB9E
:1016C000F3F20BEB01007F2800DD8038AE8A05EBDA
:1016D0004000921B491C02838029CDDB1B20C5F8EA
:1016E00018A100F027FE04E061780DA002F082FE50
:1016F00027706068401C6060BDEC068BBDE8F09F01
:10170000B401002080030020456E636F6465722081
:101710004F6666736574203D2025640A0D00000045
:1017200043616C6962204572726F722025640A0DF4
:101730000000000004480021C0F8181101210161D7
:101740000248017070470000B40100201000002022
:101750002DE9F041D04D07462DED048BB0EE608AA7
:10176000F0EE408A9FEDCD9A2846D5F8241190EDF1
:10177000522AD0ED532ACA4CB1EE421AF1EE621A47
:10178000062973D2DFE801F003236887D4D997EDE7
:10179000020AB4EEE10AF1EE10FA02DDF0EE400AC0
:1017A00001E0F0EE610AF4EEE20AF1EE10FA02DD79
:1017B000B0EE620A06E0B4EEE10AF1EE10FA01DCE6
:1017C000B0EE610A84ED030AF0EE408A5DE197ED28
:1017D000020AB4EEE10AF1EE10FA02DDF0EE400A80
:1017E00001E0F0EE610AF4EEE20AF1EE10FA02DD39
:1017F000B0EE620A06E0B4EEE10AF1EE10FA01DCA6
:10180000B0EE610AD5ED4A0A60EE890AB0EEE01A40
:10181000D4ED030A70EE601AB1EE410AF4EEC01A7C
:10182000F1EE10FA02DDB0EE612A01E0B0EE402ADE
:10183000B4EEC12AF1EE10FA02DDB0EE410A06E084
:10184000F4EEC01AF1EE10FA01DDB0EE610A70EEAE
:10185000808AC4ED038A18E197ED018AB4EEC18A4B
:10186000F1EE10FA03DDB0EE480A02E0B6E0B0EEA9
:10187000410AB4EEC20AF1EE10FA02DDB0EE428A7D
:1018800006E0B4EEC18AF1EE10FA01DCB0EE418A56
:1018900084ED028AD1E0D7ED010AF4EEC10AF1EE3F
:1018A00010FA02DDB0EE600A01E0B0EE410AB4EEDB
:1018B000C20AF1EE10FA02DDF0EE420A06E0F4EEA2
:1018C000C10AF1EE10FA01DCF0EE410A95ED4B0A87
:1018D000D4ED021A20EE090A30EEE11AB0EEC00A89
:1018E000F1EE400AB4EEE01AF1EE10FA02DDB0EECD
:1018F000412A01E0B0EE602AB4EEC02AF1EE10FAFF
:1019000002DDF0EE400A06E0B4EEE01AF1EE10FA65
:1019100001DDF0EE410A80EE890A31EEA08A84ED05
:10192000028AD5ED030A20EE200A84ED030A84E042
:1019300097ED000A84ED010A56E02078DFED599A10
:10194000594E88B105F5987097ED000A94ED021A8A
:10195000D4ED010AD0EC031A02F03EFBC6ED049A66
:1019600000203075207001E0307DB8BB96ED040A90
:10197000D6ED030AB4EEE00AF1EE10FA0ADD97EDB7
:10198000000A012084ED010AC4ED029AC4ED039A15
:10199000307523E002F0B4FA96ED000A434884ED76
:1019A000010AD6ED010AC4ED020AD6ED020A95ED50
:1019B000031A60EE810AC4ED030AD0ED040A30EE8A
:1019C000600AB0EEC00A10EE100AB0F17E5F05DAD0
:1019D00096ED040A30EE090A86ED040AD5F82401D2
:1019E000042826DB94ED010A95ED4F1AD4ED020A86
:1019F00030EE480A41EE000A95ED520AB1EE408AF7
:101A0000B4EEE08AF1EE10FA02D2B0EE601A01E014
:101A1000B0EE481AB4EEC10AF1EE10FA02D2B0EEFE
:101A2000408A06E0B4EEE08AF1EE10FA01D2B0EEA0
:101A3000608AD5F82401022827DB38EE680A95ED84
:101A4000501AD4ED030AD4ED041A41EE000A70EEE8
:101A5000A18AD5ED530AB1EE601AB4EEE81AF1EEA0
:101A600010FA02DDF0EE418A0FE0F4EEE80AF1EE42
:101A700010FA02D2F0EE608A07E0D5ED510A60EE6E
:101A8000890A40EE801AC4ED041AB0EE680ABDEC73
:101A9000048BBDE8F0810000B4010020ACC52738FC
:101AA00090000020000000008C3F0020E00000209B
:101AB0000348044980ED000A0120087070470000C7
:101AC000803F0020900000200E499FED0D0A0E4A35
:101AD00081ED040AD2ED040AC0ED000A80ED010A8E
:101AE00080ED020AD2ED040A0020C1ED010A81ED69
:101AF000020A81ED030A0870044901200875704745
:101B00000000000090000020E00000208C3F00203A
:101B10001C214FF4405000F030B910B54FF4805400
:101B2000204600F02FF840F004012046BDE81040A8
:101B300000F023B910B54FF48054204600F022F88D
:101B400020F004012046BDE8104000F016B970B541
:101B500000F011F805460A2002F0E0F800F00EF857
:101B600004460A2002F0DAF8C5F30A01C4F30A00B9
:101B700000EAC12070BD002000F004B84FF40060FE
:101B8000AFF3008010B540F400414FF090441020B6
:101B9000A062012002F0AEF81021A161C0F30A009A
:101BA00010BD10B586B0002000F07BF8142002F0C4
:101BB000B5F8012000F075F8FFF7AAFF642002F0E5
:101BC000ADF800240120CDE90140CDE903400346F2
:101BD000224621462046009400F08DF8642002F051
:101BE0009DF80D220A21032000F0A3F8642002F0E2
:101BF00095F801210D230A22084600F0A3F864207D
:101C000002F08CF8002201940294039404940223BD
:101C100001211046009400F050F8642002F07EF894
:101C20000520012300901A460021184600F095F87F
:101C3000642002F073F84FF48050FFF7A3FF2428CC
:101C400002D0601E06B010BD4FF4C050FFF79AFFDF
:101C5000A0F54071AD3902D06FF00100F2E74FF40A
:101C60000050FFF78FFFA0F5A061AD3902D06FF0F3
:101C70000200E7E74FF44050FFF784FFB0F5207F04
:101C800002D06FF00300DDE74FF42050FFF77AFF3A
:101C9000A0F58061553902D06FF00400D2E7002032
:101CA000D0E700284FF090414FF0080001D0886144
:101CB00000E08862022002F026B8F0B48002DDE97C
:101CC000044540EA412040EA0220DDE9066740EA97
:101CD000831040EA441040EA051040EAC60040EA9A
:101CE0008700DDF820C0F0BC40EA0C0081B24FF460
:101CF000405000F042B8F0B44002DDE9044540EA4B
:101D0000012040EAC210DDE9066740EA431040EADC
:101D1000041040EAC50040EA860040EA4700DDF8CA
:101D200020C0F0BC40EA0C0081B24FF4805000F0BB
:101D300024B8000240EA0110104381B24FF4C050B1
:101D400000F01BB8800240EA012040EA021018436C
:101D500081B24FF4005000F010B810B4800240EA95
:101D6000012040EA8210019C40EA0310204381B226
:101D700010BC4FF42050AFF3008018B5C1F30A0136
:101D800001434FF090441020A0620846694604F0D9
:101D90003DFE1020A06118BD7047000070B5684D71
:101DA000684C28462DED048BF0EE408A43F6FF7612
:101DB000D5F81811006989B318B100F0CDF8301AC0
:101DC00001E000F0C9F8208080B2012202EBD012BD
:101DD000C10902F07F0205EB410105EB4202B1F9B6
:101DE0001810B2F9182020F07F03C31A521A534377
:101DF00001EBE311401AB0F5804F03DBA0F57C50F6
:101E0000FF3802E0002800DA30446060A168411A1F
:101E1000B1F5005F0DDBE168491E0FE0FFE718B187
:101E200000F09AF8301A01E000F096F8208080B2B5
:101E3000EBE711F5005F02DCE168491CE16000EEB0
:101E4000100AB8EEC00A9FED409AA060B7EE008A73
:101E5000C0EE090A94ED030AB8EEC00A30EE800A1B
:101E6000F0EE480A84ED040A02F04CFBB5EEC00A1D
:101E7000F1EE10FA01D230EE080ADFED340A20EE5E
:101E8000200A84ED050A6068696995ED001A401A18
:101E900000EE100AF8EEC11AB8EEC00A60EE211A80
:101EA00081EE890AFDEEC01AF8EEE11A30EE610A01
:101EB00020EE200A84ED070AB5EEC00AF1EE10FA12
:101EC00001D230EE200A012084ED070A94ED042AA5
:101ED00094ED060A84ED062A72EE401A81EEA80AF5
:101EE000F0EE401AC0F1270104EB810191ED0B2ABD
:101EF000C0F1280104EB810132EE000A401C81EDA3
:101F00000B2A2828EEDBC4ED0B1A9FED112AC0EE38
:101F1000021AB0EE000A9FED0F2AC4ED081A21EE56
:101F2000800A20EE020A84ED0A0A21EEA00AF8EEE9
:101F3000C10A20EE200A84ED090ABDEC048B70BDB5
:101F4000B4010020E000002000FC7F46DB0FC94008
:101F500000002042DB0F494038B5064D4FF4805455
:101F60000020AC62694604F025FDAC61BDF80000BC
:101F7000800838BD000400482DE9F0410F460646B0
:101F800003F006FB002856D12C4C216889052168F6
:101F90000DD521F4007121602168490505D521681E
:101FA00021F48061216003250AE0012508E049054C
:101FB00005D5216821F480612160022500E000251B
:101FC000374416E06069F1B220F4FC7040EAC100C9
:101FD0006061606940F002006061606940F48030D7
:101FE000606103F0D5FA616921F4FD71616110B996
:101FF000761CB742E6D8012D01D0032D0BD1216804
:1020000041F400612160216821F4006121602168B0
:1020100041F400712160022D01D0032D0BD1216804
:1020200041F480512160216821F4805121602168B0
:1020300041F480612160BDE8F08100000020024091
:1020400005494FF0FF304A6942F000424A61496950
:10205000002900DA00207047002002402DE9F041FD
:1020600016461F46054603F093FA00280ED1084C89
:10207000606940F0010060612E60BFF36F8F6F6098
:1020800003F086FA616921F001016161BDE8F08128
:1020900000200240064900204A69002A07DA054A62
:1020A0008A60054A8A604969002900DA401E704743
:1020B0000020024023016745AB89EFCD10B5EFF357
:1020C000108472B601F09EFD84F3108810BD0000EC
:1020D00030B504462DED068BF0EE609AB0EE40AAC6
:1020E00089B0D0ED0A0A90ED0B0A90ED098AB0EEA6
:1020F000619A30EEC00ADFED620A04A901A860EE21
:10210000208AB0EE410A03F0BFF9DDED040A9DED2F
:10211000011A28EE200A68EEA00A08EE810A48EEAD
:10212000410A94ED0C1ADFED571A21EE212A9FED9A
:10213000561A564D3AEE40AA00EE012A79EEE09A80
:1021400084ED0C2A94ED0D2A62EE211A40EE811ADC
:10215000C4ED0D1A95ED540A94ED0F1AD4ED100A42
:1021600000EE0A1A40EE290A94ED080ADFED481A3B
:10217000B7EE002A60EE211A82EE210A60EE018A93
:1021800020EE208A28EEA80A08EE080A02F084FA57
:10219000F0EE400A9FED3F1A81EE200A10EE100A81
:1021A000B0F17E5F12DA68EE808A28EE008AD4ED04
:1021B0000F0A9FED390A60EE800AC4ED0F0AD4EDD4
:1021C000100A20EE800A84ED100A15E095ED551AEC
:1021D0009FED320AD4ED0F0A21EE001A4AEE010AF1
:1021E000C4ED0F0A95ED551AD4ED100A21EE000A40
:1021F00049EE800AC4ED100A94ED0C0AD4ED0D0AE4
:1022000003A920EE280A02A8B0EE491A08EE200A17
:10221000F0EE480A84ED0E0AB0EE680A03F0ECF91D
:1022200007AA06A905A8DDED030A9DED020A04F040
:1022300019FCDDED050A9FED1A0A1A4960EE800AC5
:10224000FCEEE00A10EE900A80B20860DDED060AAE
:10225000091F60EE800AFCEEE00A10EE900A80B2E0
:102260000860DDED070A091F20EE800ABCEEC00AF7
:1022700010EE100A80B2086009B0BDEC068B30BDCC
:102280003ACD133F3333733FCDCC4C3DB4010020E6
:10229000ABAA2A3FAC5C313FA4707D3FACC5273868
:1022A000008054453C2C014010B5EFF3108472B609
:1022B00001F090FC84F3108810BD00009FED050A2A
:1022C00080ED0C0A80ED0D0A80ED0F0A80ED100AFA
:1022D00070470000000000002DE9F047DFF844904F
:1022E0009FED0F0A0027044689ED130A3E464FF47E
:1022F0007A783D46642001F011FD20886D1C07446A
:10230000608845450644F5DB97FBF8F0606496FB72
:10231000F8F0B7EE000AA06489ED130ABDE8F08773
:1023200000000000300300200148007870470000E2
:102330004C00002070B50024544A25461B2808D0C4
:102340001378611E052B42D2DFE803F071086B7130
:102350007A00012050702846957070BD4B4E0C3E9F
:1023600073285CD008DC63283DD06D2833D07028FA
:1023700018D072285BD108E075283AD076281BD097
:10238000782825D07A2852D13FE0BFF34F8F4048BC
:102390000168404A01F4E06111430160BFF34F8FCF
:1023A00000BFFDE73C484069FDF791FF41EC100B91
:1023B0003AA053EC102B08E03D48006AFDF787FF78
:1023C00041EC100B3BA053EC102B02F013F85AE039
:1023D00003F07EFB57E0306848BB3A48D0F818015C
:1023E00028B3022002E0306808BB032050709570CB
:1023F00049E001F02FFF040005D033A001F0FAFFFF
:10240000601C15D03FE038A03BE0FFF7CAFBEFF3BC
:10241000108072B63560756080F3108833E0042058
:10242000E4E7712806D0772807D06D282BD00C461A
:1024300034A026E002F03CFE25E002F0F5FE22E0AA
:102440000D2816D01149082891F8431014D00F4BCD
:10245000DB1CC85492F84310491CC9B282F84310DF
:10246000402901D382F8435001462BA001F0C2FF5E
:1024700009E003F0FBFD06E029B1491E82F8431094
:1024800026A001F0B7FF204670BD00004C000020E0
:102490000CED00E00400FA05E0000020506F7369C5
:1024A00074696F6E3A20252E34660A0D0000000014
:1024B00030030020566275733A20252E346620566C
:1024C0000A0D0000B40100205573657220436F6E41
:1024D00066696720557064617465204641494C21E6
:1024E0000A0D0A0D000000005573657220436F6EDF
:1024F00066696720557064617465204F4B210A0D31
:102500000A0D0000496E76616C6964207374617411
:1025100065210A0D00000000256300000820080066
:102520002DE9F0413D4D68782978884207D002F0C6
:1025300083FFA87818B16878287002F033FF2878F4
:10254000002869D0354C364F0C3C022805D00328B2
:1025500025D13448FEF7C0FD21E0334E3348D6ED97
:10256000040A96ED080AFFF7F3F896ED071AF0EE65
:10257000400A9FED2F0AF0EE411A2A48FFF7A8FD06
:1025800096ED080AD7ED590AB0EEC00AB4EEE00A9B
:10259000F1EE10FA03DD206840F080502060214801
:1025A000D7ED580A90ED080AB4EEE00AF1EE10FA01
:1025B00005DB84ED020A206840F080402060D7ED02
:1025C000570AB4EEE00AF1EE10FA03D8206840F0A2
:1025D000005020601749102009694FF00106884318
:1025E0004FF0000708D020686168884204D0FFF7E8
:1025F000AEFA2168084320602068616888420BD0E9
:10260000206818B1FFF750FE6E70AF7021680AA005
:1026100001F0F0FE20686060BDE8F0814C00002011
:10262000B401002030030020E0000020803F0020A3
:1026300000000000000800484572726F7220436F6E
:1026400064653A2025580A0D00000000FEE70000EE
:1026500010B5214C606801F081FB002839D001F0F1
:1026600083FB6060FFF760FE40F2DC514FF6FF72C3
:10267000012808D04FF4967302280AD0032811D0FD
:10268000042823D126E0208820B3642818D1002014
:102690001AE02088F0B16428F9D0C8281AD09842EE
:1026A000F5D00DE02088A8B16428F0D0C82811D05A
:1026B0009842ECD0B0F5C87F0CD0B0F5FA7FE6D0E8
:1026C000884203D3228001E000F008F82088401CF3
:1026D000208010BD0120F7E708000020034A4FF4D6
:1026E000005108B19161704791627047000800483D
:1026F00030B54FF0A0444B68A46800220E4D04F0A2
:102700000104AD6805F001052C4302D001221046FA
:1027100030BD0A4D53B10C681C43D1E902310B4363
:1027200081681C4329400C438460F0E78368096892
:102730002B400B438360EAE700010050E030C0FF0C
:1027400010B54B688468002214F0010F02D00122FA
:10275000104610BD33B1D1E902342343C46824F0DC
:10276000047403E0C368CC6823F004732343C3609C
:10277000D1E900310B43C16C6FF308010B43C36413
:10278000E6E710B5C36C01F01F011F248C40C2F3B3
:102790008462A3438A401343C36410BD30B5836889
:1027A000002213F0010F02D00122104630BDD1E902
:1027B000003423438968C4684CF21805AC432143B4
:1027C0000B43C360F1E7000070B54C6883680022DA
:1027D00013F0010F02D00122104670BD002C0E4BE9
:1027E0000C6807D08D682C43D1E9035635432C4340
:1027F0004D6904E0CD682C43D1E9045635432C43A0
:10280000C5681D402C43C4604968036B23F00F0367
:102810000B430363E0E700001CC0F0FF042303EA5E
:10282000D15310B518444369C1F3045107248C40B7
:10283000A3438A401343436110BD000010B550F814
:10284000B03FC1F31204A34302F01804024AE2406D
:102850000A401343036010BDFFFF0700D0F8C020FB
:102860006FF30D020A43C0F8C020026922F48032DF
:1028700001B1012142EA0141016170478268044BC4
:1028800001F080411A400A4342F0004181607047E4
:10289000C0FFFF3F044908B5CA6C0243CA64C96C53
:1028A0000140009108BD000000100240044908B535
:1028B000CA6C0243CA64C96C0140009108BD0000A3
:1028C00000100240044908B5CA6C0243CA64C96CCE
:1028D0000140009108BD000000100240F0B50A68F8
:1028E0000F2692FAA2F2B2FA82F303248AE00125BB
:1028F0009D402A407ED04D68012D01D0022D20D16F
:102900008D68876892FAA2FCBCFA8CFC4FEA4C0EE8
:1029100004FA0EFC27EA0C0792FAA2FCBCFA8CFC23
:102920004FEA4C0C05FA0CF52F438760CF680D6811
:10293000D0F804C02CEA050C7D434CEA050CC0F825
:1029400004C00F69D0F80CC092FAA2F5B5FA85F56B
:102950004FEA450E04FA0EF52CEA050C92FAA2F5A0
:10296000B5FA85F56D00AF404CEA070CC0F80CC015
:102970004D68022D2FD1FF2A15D8D1F814C0056A51
:1029800092FAA2F7B7FA87F7BF0006FA07F7BD4336
:1029900092FAA2F7B7FA87F7BF000CFA07FC45EAEC
:1029A0000C05056217E0D1F814E0476A150A95FA9C
:1029B000A5FCBCFA8CFC4FEA8C0C06FA0CFC95FAD0
:1029C000A5F5B5FA85F5AD0027EA0C070EFA05FE68
:1029D00047EA0E0747624D68076892FAA2FCBCFA04
:1029E0008CFC4FEA4C0C04FA0CFE27EA0E0792FA14
:1029F000A2F200E005E0B2FA82F2520095402F43C5
:102A000007605B1C0A6832FA03F57FF470AF0020A0
:102A1000F0BD4FF47A71B0FBF1F14FF0E020491EA8
:102A200041610021816105210161704710B50024D9
:102A3000C02823D11248D0F8880000F0C00040F42C
:102A400040004038B0F540000AD040280CD0802823
:102A50000FD001F01FF901F0EDF801F0FBF801E0F3
:102A600001F018F9044609E000F068F830B1054CAF
:102A700004E000F06BF808B14FF40044204610BDAC
:102A8000001002400024F40070B5002429492A4DAA
:102A90004FF40046032804D00C281AD030282FD039
:102AA00040E0D1F888006FF4403100F0030040F4BA
:102AB000403040180AD0012836D002282ED001F02C
:102AC000E9F801F0B7F801F0D5F817E001F0E2F805
:102AD00014E0D1F8880000F00C0040F44020001F02
:102AE000B0F54020F2D004281ED0082816D000BF30
:102AF00001F0D0F801F09EF801F0ACF8044611E0C6
:102B0000D1F8880000F0300040F440101038B0F5E3
:102B10004010DBD0102807D02028E9D100F016F8AB
:102B200000B13446204670BD00F008F80028F9D006
:102B30002C46F7E7001002400024F4000248006829
:102B4000C0F3802070470000001002400248D0F817
:102B50009000C0F34000704700100240064A10B5D4
:102B600052F8881FC0F3044303249C40C0B2A14321
:102B700098400143116010BD0010024003498A686B
:102B800022F0F00202438A60704700000010024009
:102B900010B503680122C3F3801373BBD1E900238E
:102BA0001A43D1E9033423431A434B691A438B690F
:102BB0001A43CB691A430B6A1A4303684FF6BF7472
:102BC000A3431A430260426840F604739A434B6978
:102BD00042EA13428B681A4342608A68B2F5006F7A
:102BE00003D2426842F4805242600A6AB2F5005F42
:102BF00002D1898C89B201610022C16921F400618E
:102C0000C161104610BD0000014908607047000016
:102C1000D40000200A7B8B681A434B6822F4806240
:102C20001A430B6822F400621A43CB8922F48052C3
:102C30001A430B6922F400521A43CB6A22F48042F1
:102C40001A434B6922F470221A438B6922F0805296
:102C50001A430C4B984202D00B4B98420FD14B6A4F
:102C600022F470021A43CB6922F080721A430B6A75
:102C700022F000721A43896A22F000520A43426429
:102C800000207047002C0140003401402DE9F04342
:102C90000268224B224D234E234C4FF0804998422C
:102CA00007D0484505D0A84203D0B04201D0A04289
:102CB00003D14F6822F070023A431C4FDFF870C016
:102CC000DFF8708098420DD048450BD0A84209D05B
:102CD000B04207D0A04205D0B84203D0604501D031
:102CE000404503D1CD6822F440722A4302608A68CD
:102CF000C2620A888262984207D0A04205D0B842D8
:102D000003D0604501D0404501D1096901634169A3
:102D100041F0010141610020BDE8F083002C014039
:102D20000004004000080040003401400040014021
:102D30000044014000480140012922D0042922D04A
:102D4000102922D0402922D0B1F5807F21D0B1F5C1
:102D5000806F20D0B1F5805F1FD0B1F5804F1ED0BD
:102D6000B1F5803F1DD009210F4A1830525C104444
:102D700002680D4B0A335B5C042199408A43026070
:102D800070470021F0E70121EEE70221ECE7032183
:102D9000EAE70421E8E70521E6E70621E4E7072161
:102DA000E2E70821E0E700004C700008012922D08A
:102DB000042922D0102922D0402922D0B1F5807FC9
:102DC00021D0B1F5806F20D0B1F5805F1FD0B1F573
:102DD000804F1ED0B1F5803F1DD009210F4A183019
:102DE000525C104402680D4B0A335B5C0821994029
:102DF0000A43026070470021F0E70121EEE702215B
:102E0000ECE70321EAE70421E8E70521E6E70621EC
:102E1000E4E70721E2E70821E0E700004C70000842
:102E20002DE9F0478C460121BCF5805F25D009DCF7
:102E3000BCF1010F14D0BCF1100F15D0BCF5807F90
:102E400016D116E0424B434C434D444E444F4FF095
:102E50000009BCF5803F14D0BCF5801F74D141E05F
:102E6000114600F07DFD02E0114600F0C5FD01466F
:102E70006AE0114600F010FEF9E7114600F05AFE34
:102E8000F5E7016A21F480310162D0F820C0016DBC
:102E9000DFF8D0802CF4003C01EA0801D2F8008071
:102EA000984241EA0801B2F810804CEA084CB2F8A6
:102EB00004802CF4803C4CEA084C07D0A04205D09A
:102EC000A84203D0B04201D0B84206D14368946909
:102ED00023F4803343EA042343600165D168826CA4
:102EE00081642EE0016A21F480110162D0F820C0D3
:102EF000016DDFF874802CF4001C01EA0801D2F89F
:102F00000080984241EA0821B2F810804CEA085C3F
:102F1000B2F804802CF4801C4CEA085C07D0A04274
:102F200005D0A84203D0B04201D0B84206D14368D0
:102F3000946923F4802343EA842343600165D168C4
:102F4000C164C0F820C049460846BDE8F0870000CB
:102F5000002C014000340140004001400044014089
:102F6000004801408FFFFEFFFF8FFFFE2DE9F0417B
:102F7000044600680D46012610F0010F4CD1296966
:102F8000A868EA69084369691143084321682B4A24
:102F9000114008432060E868616821F44051014312
:102FA0006160A869A16821F440710143A1602448CF
:102FB000844201D1032008E02248844201D10C2040
:102FC00003E02148844203D13020FFF75DFD05E096
:102FD0001E48844219D1C020FFF728FDA8B16968B6
:102FE00099B12A680026EB690B2A0ED8184FD2B285
:102FF000B3F5004F57F82220B0FBF2F00FD000EBF2
:103000005100B0FBF1F080B2E0602888E16A80B244
:1030100021F00F010143E1623046BDE8F08140003C
:1030200000EB5100B0FBF1F081B24FF6F07201EA13
:103030000200C1F342010843E6E70000F369FFEF35
:10304000003801400044004000480040004C00406F
:103050007870000830B597B00024149415941821A6
:1030600068461694FDF7EFF8109411941294139497
:1030700006940794089418210AA80994FDF7E3F828
:103080004248FFF76BFD4FF40050FFF70FFC0220A2
:10309000FFF70CFC02200A9003200B900AA90E9463
:1030A0003B48FFF71BFC3B4800680022C0F30220AE
:1030B000114600F03BFC0146122001F0B8F9122045
:1030C00001F0A8F94FF0A0451494159414A92846CE
:1030D0001694FFF763FB01940294039404946946E9
:1030E00028460594FFF770FB00212846FFF7B6FB42
:1030F000286940F20341884328614FF44030CDE90C
:10310000100410A92448FFF7F3FA8420CDE906043F
:10311000089406A928460994FFF712FBE8681F499E
:10312000084040F00040E860E86C20F4C07040F4D3
:103130008070E864A8681A490840A860A86819491E
:10314000084040F08050A860174818490068B0FB5C
:10315000F1F000EB800080000A21B0FBF1F000E00C
:10316000401E0028FCD1124C092122462846FFF7B8
:1031700008FB002221462846FFF750FB7F2221460C
:103180002846FFF75BFB17B030BD000002001C00B3
:10319000000400480CED00E000030050FFFFDF7F5B
:1031A000C0FFFF5FC0FFFF7FD4000020400D030081
:1031B0000010603230B593B000241094119418219F
:1031C00006A81294FDF73FF80C940D940E94182164
:1031D00068460F94FDF737F84C48FFF7BFFC4FF4F3
:1031E0000050FFF763FB0420FFF760FB0220FFF7AE
:1031F0005DFB20200325CDE9000569460494444881
:10320000FFF76CFB0420CDE90005694604944148B2
:10321000FFF764FB404800680022C0F3022011461B
:1032200000F084FB0146122001F001F9122001F0A8
:10323000F1F83A4D1094119410A928461294FFF712
:10324000ADFA0794089409940A9406A928460B94A9
:10325000FFF7BAFA00212846FFF700FB286940F281
:1032600003418843286184200C900120CDE90D049E
:103270000CA928460F94FFF763FAE868284908402C
:1032800040F00040E860E86C20F4C07040F48070CA
:10329000E864A86823490840A860A8682249084053
:1032A00040F08050A860214821490068B0FBF1F04F
:1032B00000EB800080000A21B0FBF1F000E0401E2E
:1032C0000028FCD11B4C092122462846FFF759FA59
:1032D000002221462846FFF7A1FA7F2221462846F0
:1032E000FFF7ACFA144C40F20F1122462846FFF7C4
:1032F00048FA002221462846FFF790FA7F2221460D
:103300002846FFF79BFA13B030BD000002001C00F6
:1033100000080048000400480CED00E000010050E7
:10332000FFFFDF7FC0FFFF5FC0FFFF7FD4000020F3
:10333000400D03000008302E001060322DE9F047E8
:1033400086B018216846FCF77EFF0420FFF7A2FA3A
:103350002020FFF79FFA0120FFF79CFA0220FFF7D9
:1033600099FADFF8A0A04FF40050CAF828004FF0F7
:1033700090460821B162DFF890904710C9F8287094
:103380000121B1611021B161009001250024CDE936
:1033900001540394694650460494FFF79FFA009540
:1033A000CDE901540394694630460494FFF796FA38
:1033B00008200090CDE901540394694630460494F6
:1033C000FFF78CFA4FF01008CDF80080CDE90154DA
:1033D0000394694630460494FFF780FACDE90084EF
:1033E000694650460495FFF779FA0097CDE90154F4
:1033F0000394694648460494FFF770FA06B0BDE8A6
:10340000F087000000080048000400482DE9F04360
:1034100091B0282106A8FCF716FF18216846FCF792
:1034200012FF2C48016E41F480510166006E00F4D9
:10343000805010900120FFF745FA20270225002434
:103440000097CDE901540526CDE904464FF0904997
:10345000694648460394FFF741FA40200090CDE9C1
:1034600001544FF001080596CDE9034869464846E6
:10347000FFF734FA80200090CDE90154CDE90446ED
:10348000694648460394FFF729FA4FF48270CDE964
:10349000064008A94FF4706081E8110128020B90E2
:1034A0000720CDE90C74CDE90E400B4C06A920464F
:1034B000FFF76EFB606820F010006060606820F02D
:1034C00008006060206840F04000206011B0BDE856
:1034D000F083000000100240003001402DE9F0416F
:1034E00092B0282106A8FCF7AEFE18216846FCF72A
:1034F000AAFE2D484FF48048816D41F480418165DA
:10350000806D00F4804010900220FFF7DBF94FF44B
:103510000050009002250024CDE901540526234FD8
:10352000CDE90446694638460394FFF7D7F9CDF84C
:103530000080CDE90154CDE904466946384603943C
:10354000FFF7CCF9A8030090CDE90154CDE904467A
:10355000694638460394FFF7C1F94FF48270CDE90C
:1035600006404FF47060CDE9080501200A90400242
:103570000B901020CDE90C040720CDE90E400C4C37
:1035800006A92046FFF704FB606820F01000606089
:10359000606820F008006060206840F04000206013
:1035A00012B0BDE8F08100000010024000040048A5
:1035B000003800402DE9F041A0B014211AA8FCF712
:1035C00042FE202106A8FCF73EFE30210EA8FCF7A3
:1035D0003AFE18216846FCF736FE5A4E306E40F42B
:1035E00000603066306E002400F400601F904020C0
:1035F0001B9040F64850CDE91C04534DADF868408F
:103600001AA928461E94FFF741FB286840F0800065
:103610002860A8684D490840A86001212846FFF7A6
:10362000C5FB6020CDE90604089409940A940B9424
:103630000C9406AA012128460D94FFF7F1FB012105
:103640002846FFF779FB10212846FFF7AFFB06AAB3
:1036500010212846FFF7E4FB10212846FFF76CFBFA
:10366000AF1539462846FFF7A1FB06AA394628467A
:10367000FFF7D6FB39462846FFF75EFB4FF480582C
:1036800041462846FFF792FB40F63E50099006AAB5
:1036900041462846FFF7C4FB41462846FFF74CFB4E
:1036A00068682B49084040F070006860686820F442
:1036B00070006860A86820F08000A8600E9468140C
:1036C000CDE912040F948DF844401094ADF84640B3
:1036D00000031494CDE91540179418940EA92846B8
:1036E0001994FFF797FAF06C40F00100F064F06C69
:1036F000009700F001001F900225CDE90154062635
:10370000CDE904464FF09047694638460394FFF7E9
:10371000E5F828020090CDE90154CDE90446694658
:1037200038460394FFF7DAF868020090CDE90154B7
:10373000CDE90446694638460394FFF7CFF820B038
:10374000BDE8F08100100240002C0140F8BFFEFFF0
:103750008FFFFFFD10B586B014216846FCF773FD9E
:103760001C48816D41F010018165806D00F01000F2
:10377000059019480068C0F30220011D072901D2F5
:10378000002000E0C01E002202FA00F108011349E7
:1037900081F8000411494FF480003239C1F800016A
:1037A000A920ADF800004FF47A70CDE901200C4C4F
:1037B00069462046FFF76AFA206840F080002060E2
:1037C0006068084908406060A06820F08000A06040
:1037D00006B010BD001002400CED00E036E000E045
:1037E000001000408FFFFFFDF0B58FB0202106A82C
:1037F000FCF729FD18216846FCF725FD454850F8DF
:10380000881F002421F00C0140F83C19C16841F4E4
:103810000031C160C16801F400310E91016841F0CE
:10382000020101600068022500F002000E900820ED
:103830000090CDE9015403AA0726374F82E87000B3
:1038400069463846FFF74AF810200090CDE9015448
:1038500001200596CDE9034069463846FFF73EF85A
:103860002E480068C0F30220011D072901D2002064
:1038700000E0C01E04FA00F10801294981F80004A3
:10388000274940202239C1F800014FF4E130CDE949
:1038900006400C20CDE90A40089409940C940D943C
:1038A000204C06A92046FFF761FB002204F1080026
:1038B00050E8001F62F35F7140E80013002BF7D15E
:1038C000002104F1080000BF50E8002F22F06062E0
:1038D00042EA416240E80023002BF5D1206820F045
:1038E00000502060606820F490406060A06820F084
:1038F0002A00A060206840F001002060E069C0F369
:1039000040500028FAD0E069C0F380500028F5D07C
:103910000FB0F0BD00100240000400480CED00E0C4
:1039200026E000E000440040FEE7FEE730B500F08E
:103930000703C3F10704042C00D90424181D072829
:1039400001D2002300E0DB1E012505FA04F0401E31
:10395000084098409D406D1E1540284330BD000032
:1039600030B5026A22F001020262036A4468826989
:103970001B4D22F003022A400D6823F002032A4364
:103980000D692B434D6823F001032B43154DA842CD
:103990000BD0154DA84208D0144DA84205D0144DA7
:1039A000A84202D0134DA84212D14D6923F008035A
:1039B00043EA85038D6823F0040343EA85038D6998
:1039C00024F480742C43CD6924F4007444EA450443
:1039D00044608261C96841630362002030BD000019
:1039E0008FFFFEFF002C01400034014000400140E9
:1039F000004401400048014030B5026A22F0100244
:103A00000262056A426883691D4C23F440732340B7
:103A10000C6843EA042425F020030D6943EA0513EA
:103A20004D6823F0100343EA0513164DA8420BD04E
:103A3000154DA84208D0154DA84205D0144DA842F6
:103A400002D0144DA84213D14D6923F0800343EAFC
:103A500085138D6823F0400343EA85138D6922F4B2
:103A6000806242EA8502CD6922F4006242EAC50220
:103A700042608461C96881630362002030BD000038
:103A8000FF8FFFFE002C0140003401400040014048
:103A9000004401400048014030B5026A22F48072BF
:103AA0000262046A4368C2691C4D22F003022A4084
:103AB0000D6824F400742A430D6944EA05244D6816
:103AC00024F4807444EA0524154DA8420BD0154D0A
:103AD000A84208D0144DA84205D0144DA84202D0E7
:103AE000134DA84213D14D6924F4006444EA85249F
:103AF0008D6824F4806444EA85248D6923F480531E
:103B000043EA0513CD6923F4005343EA45134360A8
:103B1000C261C968C1630462002030BD8FFFFEFF2F
:103B2000002C0140003401400040014000440140AD
:103B30000048014030B5026A22F480520262056AF0
:103B40004268C3691D4C23F4407323400C6843EA68
:103B5000042425F400530D6943EA05334D6823F42A
:103B6000805343EA0533164DA8420BD0154DA842A9
:103B700008D0154DA84205D0144DA84202D0144DCE
:103B8000A84213D14D6923F4004343EA85338D687D
:103B900023F4804343EA85338D6922F4804242EA6C
:103BA0008512CD6922F4004242EAC5124260C46126
:103BB000C96801640362002030BD0000FF8FFFFE72
:103BC000002C01400034014000400140004401400D
:103BD0000048014010B5FDF7A0FF094940F2A4607C
:103BE0000860091F0860091F086005486FF001019F
:103BF0003C380161026912F0010FFBD0016110BD78
:103C00003C2C0140094940F2A4600860091F08608B
:103C1000091F086005486FF001013C380161026925
:103C200012F0010FFBD00161FDF784BF3C2C014075
:103C30007047000005498968054A01F0F00109094B
:103C4000515C01F01F01C8407047000000100240A5
:103C50006070000805498968054A01F4E06102EBDB
:103C60001121097801F01F01C8407047001002407F
:103C70007070000805498968054A01F4605102EB3B
:103C8000D121097801F01F01C8407047001002409F
:103C9000707000081549886800F00C031448042B64
:103CA0000DD04210082B09D00C2B08D1CB6803F0A3
:103CB0000303022B05D0032B03D101E0104670470C
:103CC0001046CA68C2F306224243C868C96800F0B9
:103CD000F003012000EB1313B2FBF3F201F0C0611B
:103CE00000EB51604000B2FBF0F070470010024062
:103CF0000024F40008B50846694602F087FEBDF8C6
:103D0000000008BD704730B504464FF47A7502E0F4
:103D1000284600F003F8641EFAD230BDF0B54FF02B
:103D2000E0240021A3690C4EAA25A269934202D97E
:103D3000A3EB020303E003D2A6EB02073B441944C2
:103D40001346B1FBF5F2824205D2801AB1FBF5F2BF
:103D500005FB1211E9E7F0BD10980200014909685E
:103D6000081A7047000000200148006870470000F2
:103D7000000000204FF0E0210F4848610F48006824
:103D8000C0F30220C0F10702042A00D90422031D57
:103D9000072B01D2002000E0C01E012393405B1ED0
:103DA00003F002028240064B0020120183F8142D1A
:103DB00088610720086170470F9802000CED00E051
:103DC0000FE000E002480168491C016070470000F4
:103DD0000000002038B52D48016821F00F0141F0A6
:103DE00004010160016801F00F010429FAD128489B
:103DF00050F8801F21F480710160264C206840F447
:103E0000807020602068C0F380200028FAD06068AD
:103E100020F0FE4040F080406060E16845F23250A2
:103E20001D4A11400843E060E06840F08070E060A7
:103E3000206840F0807020602068C0F34060002857
:103E4000FAD0A06840F00300A0608020FEF796FE44
:103E5000A06800F00C000C28FAD155200090401EFC
:103E60000090FCD1FEF78AFEA06820F4E060A0601C
:103E7000A06820F46050A060084C2046FEF7C9FD01
:103E80002046BDE83840FEF7BFBE000000200240DB
:103E900000700040001002400C80FFF980FE210AF3
:103EA0000248016841F470010160704788ED00E04C
:103EB0000E48016911F0010F16D06FF00101016188
:103EC0000B480168491C01600A49087800280BD199
:103ED00009480088002807D0084A1068401C106074
:103EE000322801D9012008707047000000100040FE
:103EF00004000020CE000020CC000020D0000020D4
:103F00003349DFED320AB5EEC00AD1ED001A91ED6A
:103F1000021A3048F1EE10FA02D2C0ED001A16E093
:103F200091ED062AF6EE002AB4EEC20AF1EE10FA7E
:103F300013D2D1ED030A41EE001A20EEA22A60EE60
:103F4000002A00EE801A42EE221AC0ED001A80ED1F
:103F5000011A00BFC0ED020A704791ED071A32EE58
:103F6000011AB4EEC01AF1EE10FA0ADD70EE421A30
:103F700091ED091A91ED040A00EE211A80ED001A64
:103F800017E0D0ED031A124AF4EEC01A92ED011AAE
:103F9000F1EE10FA10DD30EE610AD1ED050A60EEA7
:103FA000A21A20EE002A20EE800A01EE821A80ED8D
:103FB000001A80ED010ACDE7F4EEC01AF1EE10FA16
:103FC000CAD880ED001AC0ED010AC3E70000000066
:103FD000A40000208C3F002010B52DED0A8BB0EE20
:103FE00062BAF0EE418AB0EE00CAB0EE609A68EEB6
:103FF000A8BA6BEE0C0AF0EE40AA84B0B0EE42AA6A
:104000008BEEA00AF0EE61CA7AEEC99A10EE100AA1
:10401000FCF75DF9CDE9020118EE900AFCF757F9BB
:10402000CDE900010399019861F31E0003909DED15
:10403000020B51EC100BFCF75DF900EE100A39EEA3
:10404000C00A10EE100A002802DABFEE008A01E072
:10405000B7EE008A5F4C28EE0A0A28EE281A68EEAE
:104060004B0A84ED030A28EE2C0AC4ED050A84ED00
:10407000040A68EE001AB4EEE11AF1EE10FA03DD5C
:1040800028EE4A1A84ED031A30EE682A94ED031ADA
:10409000F1EE402AB6EE00AAC2EE011A82EEA02A84
:1040A00070EE282AC4ED061A61EE8A1A61EEA21A91
:1040B00084ED082A22EE0A2A42EE001A28EE292A66
:1040C00068EE212AB4EEE22AF1EE10FA58D221EE7F
:1040D0000C0A6BEEA01A20EE200A70EEC10A40EE28
:1040E000291A81EEA00A10EE100AFCF7F0F89FEDF5
:1040F0003ABB41EC100BB0EE4B1AF0EE6B1A00F02D
:10410000C7F951EC100BFCF7F5F800EE100A00F0BF
:10411000C3FA20EE088A84ED048A78EE680A94EDEA
:10412000031A80EE810A10EE100AFCF7D0F841EC79
:10413000110BB0EE4B0AF0EE6B0A00F0A9F951EC4E
:10414000100BFCF7D7F8A06194ED051AF1EE480AC0
:1041500080EE810A10EE100AFCF7B9F841EC110B61
:10416000B0EE4B0AF0EE6B0A00F092F951EC100B36
:10417000FCF7C0F89FED1A0A206284ED070A05E0FB
:1041800079EEE10A80EE801A84ED071A94ED060AB2
:10419000D4ED070A94ED081A124870EE200A70EE6A
:1041A000810AC0ED030A84ED009AC4ED01AAC4EDB2
:1041B000028AD4ED030A08EE809A20EE000A60EE2F
:1041C0008A0A00EE809A84ED099A04B0BDEC0A8B4D
:1041D00010BD0000A400002000000000000000004E
:1041E000000000008C3F00200948C169C1F3401164
:1041F00000290CD0406A074AC1B21088802806D234
:10420000054B1954401C0549108000200860704778
:1042100000440040CC000020C43F0020D00000201B
:1042200010B500244FF4BE7208490948FBF7F2FFAD
:1042300000224FF4BC71064800F026FF0449D1F873
:104240007811814200D0641E204610BD00E00108B4
:10425000B40100202DE9FC47EFF3108572B6FDF79D
:1042600019FF01213C20FDF787FE060001D01CA0AC
:1042700029E000224FF4BC71204800F005FF1F49DF
:10428000DFF87C800F4600244FF4BE79C1F8780136
:104290004FF0FF30CDE90000C4F5BE72082A05DBFF
:1042A0003819016800914068019003E039196846A7
:1042B000FBF7B0FFDDE9002304EB0800FDF7CEFEBD
:1042C000060003D00FA000F095F802E008344C453A
:1042D000DED3FDF7B5FE85F310883046BDE8FC87D8
:1042E000464C4153485F65726173655F70616765F5
:1042F000204572726F720A0D00000000B4010020A8
:1043000000E00108464C4153485F70726F6772616C
:104310006D204572726F720A0D0000002848072157
:104320009FED280A40F8F41B002100ED3C0A9FEDA8
:10433000260A052200ED3B0A9FED240ADFED260A3E
:1043400000ED3A0AB7EE000A416280ED0A0AB2EEC9
:10435000040A80ED0B0AB0EE000A026380ED0D0A3C
:104360009FED1B0A4FF47A7280ED0E0A80ED0F0A62
:104370009FED180A80ED100A80ED110AC0ED120AB7
:10438000DFED160AC0ED130ADFED150AC0ED140AC1
:10439000DFED140AC0ED150AF3EE040AC0ED160AAB
:1043A000DFED110A4266C0ED1A0ADFED100A37226E
:1043B000C0ED1B0A80ED1C0AC0E91D21C1677047D2
:1043C000B40100200953243E8BE1EA376F12833A8F
:1043D000000048420000C84200002043CDCC4C3FC2
:1043E0000AD7A33D0000B4423333334100002042DA
:1043F000FEE700000FB4054B10B503A9044A02986C
:1044000000F056FA10BC5DF814FB0000E1550008FE
:10441000D8000020002809DB00F01F020121914094
:104420004009800000F1E020C0F800117047090742
:10443000090E002804DB00F1E02080F8001470472A
:1044400000F00F0000F1E02080F8141D704700001C
:1044500000487047DC00002030B583B0044600F00F
:1044600041F99FED090B05468DED000B0022214619
:104470006846FBF7CEFF284600F04AF99DED000B99
:1044800003B030BD0000000000000000000000008C
:1044900000B52DED048BB0EE418AF0EE618AB0EEEE
:1044A000409AF0EE609A83B053EC182B51EC190B44
:1044B000FCF78EFA00F07040B0F1005F1AD018EEF1
:1044C000101A18EE900A8DED008B002918BF0121FB
:1044D000084320F00040C0F17F6000F1E040C00FD1
:1044E00001BFB0EE480AF0EE680A03B0BDEC048BE1
:1044F00008BF00BDB0EE490A03B0F0EE690ABDEC9A
:10450000048B00BD10B52DED028BF0EE408A18EE45
:10451000900AB0EE608A20F00040C0F1FF40C00F6A
:1045200007D118EE100A20F00040C0F1FF40C00F84
:104530002BD018EE101A18EE900AFCF70CF800EECB
:10454000100A10EE100A6FEAD05010F0FF0F04BFEF
:10455000BDEC028B10BD18EE900A00F0004110EE89
:10456000100A00F00040814204BFBDEC028B10BD78
:1045700018EE101A10EE100ABDEC028B61F31E004B
:1045800000EE900A30EE600A10BD18EE900A4FF06F
:104590007F41B1EB400F1CBF18EE100A5FEA4000EC
:1045A000C7D1012000F0B4F8BDEC028BBDE810408B
:1045B00000F090B80000000010B52DED020B2DEDBD
:1045C000088B84B09DED0C0B51EC100BFCF774F9CB
:1045D00041EC180B9DED0C0B53EC182B51EC100B10
:1045E000FCF783F841EC190B0D989FED290B10F0A7
:1045F000004F53EC102B51EC190B9FED21AB9FEDAD
:1046000022BB0ED0FCF7B4F90ED953EC1B2B51ECA6
:10461000190BFCF7C5F91CD214E000BF41EC180BD4
:1046200017E0FCF7A5F906D253EC1A2B51EC180B46
:10463000FCF75BF8F2E753EC1B2B51EC190BFCF782
:10464000AFF906D853EC1A2B51EC180BFBF7ACFF63
:10465000E4E78DED028B9DED0C0B18EE901A10EE39
:10466000900A8DED000B61F31E0003909DED020B8F
:1046700004B0BDEC088B02B010BD000000000000CB
:10468000000000000000F03F000000000000E03FDC
:10469000000000000000E0BF10B52DED028BB1EE70
:1046A000C08A18EE100A20F00040C0F1FF40C00F91
:1046B0000AD010EE100A20F00040C0F1FF40C00FF9
:1046C00004BF012000F024F8B0EE480ABDEC028BD4
:1046D00010BD0000DFED020A80EEA00A7047000066
:1046E000000000000148006870470000DC00002066
:1046F00002E008C8121F08C1002AFAD170477047AB
:10470000002001E001C1121F002AFBD17047000008
:104710000149086070470000DC0000202DE9FF5FC0
:1047200082B00021DDE90430020DDDF840B0034322
:1047300018D044F61050A2F2FF32424315141198DB
:1047400001281FD0A5EB0B00401C5FEA000A4FF0C8
:1047500000064E4FDFF83891B046504615D5CAF1E5
:10476000000413E0119801244AA3012801D16FEA43
:104770000B010298119AC0E90031C0E9024206B06B
:10478000BDE8F09FCBF10000DFE704460021404A7E
:10479000491842EB0450CDE9001012E0E00707D0C1
:1047A00032463B4640464946FBF7A5FF80468946D0
:1047B00032463B4610461946FBF79DFF06460F461C
:1047C0006410002CEAD1DDE90401DDE90023BAF12F
:1047D000000F06DAFBF78FFF42464B46FBF78BFFD5
:1047E00005E0FBF7FAFF42464B46FBF7F6FF0446AF
:1047F0000E460022284BFCF7D3F803D84FF0FF30C9
:10480000014607E00022254B20463146FBF7CCFE4F
:10481000FCF796F8102409E0002C0ADB0A2200239A
:10482000FBF79AFD039B30321A55641E50EA0102D1
:10483000F2D1641C039AC4F111031444119A012AA1
:1048400003D0012208430DD10AE0084304D0002020
:104850004FF0110B119072E7A3EB0B056D1E0DE0ED
:104860005B4504DD4FF0000205F1010504E003DAC9
:104870004FF00002A5F10105002AECD00298119931
:10488000C0E90231C0E9004579E7000000001440AA
:104890000000F03F300000000000F0430000E03F67
:1048A00030380A2801D201207047002070470000EC
:1048B0002DE9FF4F95B09A46884606460025EEE161
:1048C000252877D100242746F94A0121039400E0E6
:1048D000044316F8013F203B01FA03F01042F7D1E0
:1048E00030782A2811D06FF02F033078A0F13002F1
:1048F000092A16D8039A44F0020402EB820203EB61
:1049000042021044761C0390EFE758F8042B039200
:10491000002A03DA504244F40054039044F00204A5
:10492000761C30782E2816D116F8010F44F00404B6
:104930002A280DD06FF02F023078A0F13003092B18
:1049400009D807EB870302EB4303C718761CF3E78C
:1049500058F8047B761C30786C280FD006DC4C2885
:1049600017D068280DD06A2814D104E0742810D01C
:104970007A280FD10DE044F400140AE044F48014C6
:1049800001E044F440147278824202D104F58014AC
:10499000761C761C307866280BD013DC582877D02C
:1049A00009DC002875D04528F6D04628F4D04728E1
:1049B0001AD193E118E0632835D0642879D06528AE
:1049C00012D18BE1702873D008DC6728F1D06928F8
:1049D0006FD06E280DD06F2806D1ACE073282CD094
:1049E000752874D0782853D05246179990476D1C7B
:1049F00054E1C4F30250022809D003280DD0D8F89E
:104A0000001004280DD00D6008F1040846E1D8F824
:104A10000010EA17C1E90052F6E7D8F800100D803F
:104A2000F2E70D70F0E718F8041B8DF80010002075
:104A30008DF80100EB46012003E058F804BB4FF06D
:104A4000FF3061074FF0000102D40DE009F10101D0
:104A50008946B9420FDA8145F8DB1BF809100029B5
:104A6000F4D108E009F1010189468142FADB1BF823
:104A700009100029F6D103985346A0EB09072146F7
:104A80003846179A00F080FA284400EB090507E041
:104A900044E008E10DE01BF8010B524617999047DE
:104AA000B9F10109F7D2534621463846179AF2E088
:104AB00039E00A21C4F302524FF0000B0091022AA0
:104AC00006D058F8040BC117032A09D00AE023E0E6
:104AD00008F1070020F00702F2E80201904605E025
:104AE00000B2C117042A01D140B2C117002906DA69
:104AF0000A460021404261EB02012D2202E022051C
:104B000004D52B228DF80420012203E0E20701D016
:104B10002022F7E7914657E00A2100E010214FF0EC
:104B2000000B00910BE010214FF0000B44F0040447
:104B30000827009103E008204FF0000B0090C4F319
:104B40000252022A05D058F8040B0021032A08D08B
:104B500008E008F1070020F00702F2E802019046A1
:104B600003E080B2042A00D1C0B24FF0000922074E
:104B70002AD53278702A07D0DDF800C08CF0100CEE
:104B80005CEA0B0C05D00EE040228DF804200122D7
:104B900008E050EA010306D030238DF804308DF888
:104BA000052002229146009B83F0080353EA0B0381
:104BB0000AD150EA010201D1620705D530228DF8F1
:104BC00004204FF001097F1E3278582A04D039A200
:104BD0000C920CAA02920BE03BA2F9E75B46009A0A
:104BE000FBF7BAFB0C9B9B5C029A521E029213705D
:104BF00050EA0102F2D1029804A9081A00F1200B30
:104C0000600702D524F4803400E001275F4502DD0F
:104C1000A7EB0B0000E0002000EB0B0100900398D5
:104C20004944401A0390E00306D453462146179A9C
:104C3000039800F0A9F90544002706E001A85246B0
:104C4000C05D179990476D1C7F1C4F45F6DBE00354
:104C50000CD553462146179A039800F095F9054460
:104C600004E030205246179990476D1C0099481E69
:104C700000900029F5DC08E002980299524600787D
:104C8000491C0291179990476D1CBBF10001ABF1D3
:104C9000010BF1DC5BE100F065F90544761C30782E
:104CA00000287FF40DAE19B02846BDE8F08F000053
:104CB00009280100303132333435363738396162F2
:104CC00063646566000000003031323334353637B6
:104CD000383941424344454600000000600700D493
:104CE000062708F1070020F00700F0E802238046BD
:104CF00003F0004C5FEA0C0001D097A009E020050A
:104D000001D596A005E0E00701D095A001E0AFF243
:104D10004C001390307823F0004365280CD006DC5B
:104D2000452809D046281DD047287FD13BE066287A
:104D300018D067287AD136E00021112F01DB11202D
:104D400000E0781CCDE9000104A90CA8FFF7E6FCFF
:104D5000DDE90D010C9A4FF0000B07F101091092EB
:104D600000914EE04FF000400097CDE9011004A9FA
:104D70000CA8FFF7D3FCDDE90D020C9B0F994FF057
:104D8000000B91461093009211B9791C00EB0109B8
:104D9000B7EB090003D4C0F1FF3B07F10109A9EB10
:104DA0000700019042E0012F00DA01270021112FB6
:104DB00001DD112000E03846CDE9000104A90CA86E
:104DC000FFF7ACFCDDE90D010C9A00914FF0000BF0
:104DD000B946109221070FD4009A4A4503DA91464A
:104DE00001E0A9F10109B9F1010F05DD109AA9F15E
:104DF0000101515C3029F4D0B84202DA10F1040FFD
:104E000003DA0121CDE9011010E0002803DC83441E
:104E1000A9EB000102E0411C494500DD8946A0EBF9
:104E20000B00401C01904FF000400290200705D479
:104E30000198484502DB4FF0FF30019000208DF8CB
:104E40004B0002980DF14B07B0F1004F25D0022026
:104E50000C902B200D90029800280CDA4042029012
:104E60002D200D9007E00A210298FBF75FFA303100
:104E7000029007F8011D0C99481E0C900029F2DCE5
:104E800002980028EFD1791E0D980870307800F054
:104E9000200040F0450007F8020D11A8C01BC01DFE
:104EA00002901398007800B1012000EB09010198ED
:104EB00001EBE071029801440398401A401E0390F0
:104EC000E00306D453462146179A039800F05CF895
:104ED00005441398007818B15246179990476D1CF5
:104EE000E00323D553462146179A039800F04CF867
:104EF00005441BE0BBF1000F07DB0098584504DDBB
:104F00001098179910F80B0001E0179930205246BD
:104F1000904701980BF1010B401E05F1010501902E
:104F200004D12E205246179990476D1CB9F100010B
:104F3000A9F10109DEDC05E017F8010B52461799CB
:104F400090476D1C0299481E02900029F4DC5346DC
:104F50002146179A03989EE62D0000002B000000C2
:104F6000200000002DE9F041044600251E461746AA
:104F7000880404D405E039462020B0476D1C641E27
:104F8000F9D52846BDE8F0812DE9F0410446002519
:104F90001E469046C80301D5302700E0202788042C
:104FA00004D505E041463846B0476D1C641EF9D56E
:104FB0002846BDE8F081000000B5B7EE002A2DEDCF
:104FC000048BB0EE619A85B0DFED2B1A60EE211AEA
:104FD00082EE210A60EE208A20EE018A28EEA80ADD
:104FE00008EE080AFFF758FB9FED241AF0EE400A7E
:104FF00081EE200A10EE100AB0F17E5F03DA68EE4F
:10500000808A28EE008A01A96846B0EE491AF0EEBF
:10501000480AB0EE680A00F0EFFA9DEC020A04AA12
:1050200003A902A801F01EFDDDED020A9FED140A9E
:10503000144960EE800AFCEEE00A10EE900A80B29D
:105040000860DDED030A091F60EE800AFCEEE00A4D
:1050500010EE900A80B20860DDED040A091F20EE10
:10506000800ABCEEC00A10EE100A80B2086005B0DB
:10507000BDEC048B00BD0000ABAA2A3FAC5C313F05
:10508000008054453C2C0140034610B51046074AA9
:1050900008E000BF13F8014B84EA106452F8244082
:1050A00084EA0020491EF5D210BD00004C6C0008B7
:1050B00010B53348DFED340AB6EE001AD0F82411EB
:1050C0003048062990ED020A70EE200A90ED010AA0
:1050D00030EE010A52D2DFE801F0030F1B273348FC
:1050E000C0ED020A10EE900AFBF7F1F841EC100B4C
:1050F00026A053EC102B34E0C0ED020A10EE900A0B
:10510000FBF7E5F841EC100B26A053EC102B28E040
:1051100080ED010A10EE100AFBF7D9F841EC100BF4
:1051200027A053EC102B1CE080ED010A10EE100AB2
:10513000FBF7CDF841EC100B27A053EC102B10E03F
:1051400090ED000ADFED2C0A30EE200A80ED000A17
:1051500010EE100AFBF7BBF841EC100B27A053EC44
:10516000102BBDE81040FFF745B9B1EE040AFCF77B
:105170009FFCBDE8104027A0FFF73CB910BD000020
:10518000B4010020803F0020CDCCCC3D696E70750D
:10519000745F63757272656E74203D2025660A0D1A
:1051A000000000005B52616D705D20696E70757467
:1051B0005F63757272656E74203D2025660A0D006E
:1051C000696E7075745F76656C6F63697479203D84
:1051D0002025660A0D0000005B52616D705D20693C
:1051E0006E7075745F76656C6F63697479203D20AD
:1051F00025660A0D000000000AD7233C696E707511
:10520000745F706F736974696F6E203D2025660A44
:105210000D0000006D6F76655F746F5F706F7320B7
:105220003D20350A0D00000010B53348DFED340A8B
:10523000B6EE001AD0F824113048062990ED020A83
:1052400070EE600A90ED010A30EE410A52D2DFE8BA
:1052500001F0030F1B273348C0ED020A10EE900A3D
:10526000FBF735F841EC100B26A053EC102B34E083
:10527000C0ED020A10EE900AFBF729F841EC100B82
:1052800026A053EC102B28E080ED010A10EE100A46
:10529000FBF71DF841EC100B27A053EC102B1CE082
:1052A00080ED010A10EE100AFBF711F841EC100B2B
:1052B00027A053EC102B10E090ED000ADFED2C0A34
:1052C00030EE600A80ED000A10EE100AFAF7FFFFD8
:1052D00041EC100B27A053EC102BBDE81040FFF75A
:1052E00089B89FED2A0AFCF7E3FBBDE8104028A02F
:1052F000FFF780B810BD0000B4010020803F0020FF
:10530000CDCCCC3D696E7075745F63757272656EDD
:1053100074203D2025660A0D000000005B52616D7F
:10532000705D20696E7075745F63757272656E74FE
:10533000203D2025660A0D00696E7075745F7665E4
:105340006C6F63697479203D2025660A0D000000AA
:105350005B52616D705D20696E7075745F76656C0F
:105360006F63697479203D2025660A0D00000000F6
:105370000AD7233C696E7075745F706F73697469C6
:105380006F6E203D2025660A0D0000000000000021
:105390006D6F76655F746F5F706F73203D20300AAC
:1053A0000D000000174810B50178012910D002291E
:1053B00012D003291DD0042922D1002180F84310E6
:1053C0004021C01CFAF73FFFBDE8104000F080BB51
:1053D000BDE8104000F0E2BA0BA0FFF70BF80F4851
:1053E000FCF772FB0E48FCF769FFBDE81040FCF7C4
:1053F00065BE0CA0FEF7FEFFBDE81040FCF79AB9B1
:1054000010BD00004C000020456E746572204D6F89
:10541000746F72204D6F64650A0D0000803F00209C
:105420003003002043616C6962726174696F6E20A1
:1054300053746172740A0D0070B50C4C012520780C
:10544000052805D2DFE800F00303050B0700A5706F
:1054500070BDFCF729FF0648FEF7CCFFF7E7FCF725
:1054600023FFFBF733FE03A0F6E700004C0000200B
:105470001854000843616C6962726174696F6E2030
:10548000456E640A0D0A0D0070B50C462DED028BB9
:105490000546DFED388A9FED388A30EE280AF0EEB7
:1054A000480AFFF72FF8B5EEC00AF1EE10FA03D262
:1054B000F0EE480A30EE200A9FED302ADFED301A78
:1054C0009FED301A70EE680AF5EEC00AF1EE10FAA0
:1054D00020EE820A60EEA12A27D202EEA00A26E080
:1054E00060EE402A72EEC02A04E000BFF0EE402ACF
:1054F00050EE002A254902EE810A85ED000A9FED53
:10550000220A70EE800A10EE900A884201DD70EEE9
:10551000C80AF5EEC00AF1EE10FA20EE820A60EE3B
:10552000A11A14D201EEA00A13E002EEE00A85ED02
:10553000000AB5EEC00AF1EE10FAD7D2D0E700BFEC
:1055400000EE810A84ED000ABDEC028B70BD01EE15
:10555000E00A84ED000AB5EEC00AF1EE10FA04D2BA
:1055600060EE400A70EEC00AEAE7F0EE400A50EE44
:10557000000AE5E7DB0F4940DB0FC94083F9A23F92
:105580007B81CF3E6666663EDB0FC93FDB0F49403D
:105590000021114A114805E0491C914202D94FF0FF
:1055A000FF3070470369DB03F6D401694CF2FA322D
:1055B000114009D08A0F01D0826982618A0000D02F
:1055C00001616FF0010070470169C90701D0012135
:1055D000016100207047000040420F00002002409F
:1055E0000449C2B28A62CA69C2F38012002AFAD0A0
:1055F000704700000044004030B50C462DED028B92
:1056000083B00546F0EE408AB0EE608A01A9684694
:10561000B0EE410AFFF738FF9DED010ADDED000A0B
:1056200028EE800A08EE600A85ED000A9DED000A6A
:10563000DDED010A28EE800A08EE200A84ED000A5A
:1056400003B0BDEC028B30BD7B4808B5016E41F064
:1056500001010166016E01F001010091816D41F0CF
:1056600080518165806D754900F080500090086818
:105670004FF6FF021040724A40F440701043086039
:105680000868C0F30220C0F10702042A00D90422EE
:10569000011D072901D2002000E0C01E0121914018
:1056A000491E814000250801664981F8140D6648AD
:1056B000816841F480418160FEF78CFBFEF75AFB64
:1056C000FDF73CFEFEF790F8FDF7A0FEFDF706FFA4
:1056D000FDF7C0FCFDF76EFDFDF76CFFFEF73AF835
:1056E000FEF748FB4FF0A0447F212046FDF7C6F8A7
:1056F000A068C00FFCD1554E7F213046FDF7BEF8A3
:10570000B068C00FFCD1A16851480140491CA1609C
:10571000B1680140491CB160A168014041F0080135
:10572000A160B168014041F00800B0604949486C8F
:1057300040F400404864086A40F001000862086ACA
:1057400040F010000862086A40F480700862086A3D
:1057500040F480500862086840F001000860C820EA
:10576000FEF7D1FA606840F040006060706840F079
:10577000400070603848C16841F00101C1600168B3
:1057800041F001010160FCF70CFA18B133A0FEF7FB
:1057900031FEFEE737A0FEF72DFEFEF741FDB0B368
:1057A000FEF7BCFD39A000BFFEF724FE414C1421DA
:1057B000D4F8580104F5927490FBF1F000EE100A51
:1057C0003D48B8EEC00A00F08FF84FF47A702560BB
:1057D000A064C820FEF797FA3848FCF77DFD1B202F
:1057E000FCF7A8FD364900BF51E8000F40F020004B
:1057F00041E80002002AF7D1A846324F324E334D1D
:10580000FCF726FF30780028FAD0002407E0FFE7F5
:105810002FA0C9E7385DFCF78DFD641CE4B2288831
:105820008442F7D386F80080A5F8008080212548BF
:10583000FAF709FDE4E70000001002400CED00E07B
:105840000000FA050FE000E0007000400001005089
:10585000C0FFFF7F002C0140001000400A0D4452A1
:10586000563833323320696E6974206661696C2161
:105870000A0D00000A0D4452563833323320696E47
:105880006974206F6B210A0D000000000A0D436F40
:105890006E666967206C6F61646564206661696C1F
:1058A000652073657420746F2064656661756C741F
:1058B0000A0D0000B4010020A43F002030030020A6
:1058C00000440040C43F0020CE000020CC00002057
:1058D0000A0D436F6E666967206C6F6164656420B2
:1058E0006F6B0A0D00000000F0EE000A20EE200AA7
:1058F000F5EE000A80ED040A60EE200A20EE800A30
:1059000080ED050A9FED050A80ED060A80ED070A85
:1059100080ED000A80ED010A7047000000000000E1
:1059200010B504462DED028BB0EE608AD0ED060A6C
:1059300090ED071A48EE010AC0ED060A30EE600A43
:1059400001F066F9D4ED040AB0EE401A94ED060AAF
:1059500060EE880A00EE810A84ED060AD4ED051A8D
:10596000D4ED070A61EE881A41EE810AC4ED070AF8
:1059700084ED020AC4ED030A01F04AF9DFED060ADC
:1059800030EE200A84ED000A94ED070A84ED010A46
:10599000BDEC028B10BD0000DB0F494010B513A019
:1059A000FEF728FD14A0FEF725FD19A0FEF722FD45
:1059B0001CA0FEF71FFD21A0FEF71CFD24A0FEF792
:1059C00019FD28A0FEF716FD2CA0FEF713FD30A050
:1059D000FEF710FD32A0FEF70DFD37A0FEF70AFD21
:1059E000BDE8104029A0FEF705BD0000436F6D6DB6
:1059F000616E64733A0A0D0020722020202D20531E
:105A0000797374656D2052657365740A0D0000002A
:105A100020702020202D2047657420506F730A0DC0
:105A20000000000020782020202D20436865636B53
:105A300020436F6E6669670A0D0000002076202003
:105A4000202D2047657420566275730A0D000000F2
:105A5000206D2020202D204D6F746F72204D6F64BB
:105A6000650A0D0020632020202D2043616C6962AF
:105A7000726174696F6E0A0D00000000207A2020A8
:105A8000202D20436C656172204572720A0D000062
:105A900020732020202D2053657475700A0D00009E
:105AA00020752020202D2055706461746520436F7F
:105AB0006E666967730A0D0020457363202D2045CB
:105AC00078697420746F204D656E750A0D000000B2
:105AD00070B588A0FEF78EFC8CA0FEF78BFC8E4C78
