:020000040800F2
:10000000D8440020F1010008FB43000879300008C3
:10001000F9430008C9100008E94E0008000000007C
:10002000000000000000000000000000D5470008AC
:10003000F51D000800000000014700089548000871
:100040000B0200080B0200080B0200080B0200085C
:100050000B0200080B0200080B0200080B0200084C
:100060000B0200080B0200080B0200080B0200083C
:100070000B0200080B0200080B0200080B0200082C
:100080000B02000800000000E10F00080B0200084E
:100090000B020008D11F00080B0200080B02000829
:1000A0000B0200080B0200080B0200080B020008FC
:1000B0000B0200080B0200080B0200080B020008EC
:1000C0000B0200080B0200080B0200080B020008DC
:1000D0000B0200080B020008B94C00080B020008D4
:1000E0000B0200080B0200080B0200080B020008BC
:1000F0000B0200080B0200080B02000800000000C1
:10010000000000000B020008000000000B020008C5
:100110000B02000800000000814900080B020008E3
:100120000B0200080B0200080B0200080B0200087B
:100130000B02000800000000000000000B02000895
:100140000B0200080B020008000000000000000085
:10015000000000000000000000000000000000009F
:100160000000000000000000000000000B0200087A
:100170000B0200080000000000000000000000006A
:10018000000000000B02000800000000000000005A
:10019000000000000000000000000000000000005F
:1001A00000000000000000000B0200080B02000825
:1001B0000B0200080B0200080B0200080000000000
:1001C000000000000B02000800000000000000001A
:1001D0000B0200080B020008DFF810D000F028FC2A
:1001E0000048004759630008AFF30080D84400205E
:1001F0000648804706480047FEE7FEE7FEE7FEE7C1
:10020000FEE7FEE7FEE7FEE7FEE7FEE771490008CE
:10021000D901000840EA01039B0703D009E008C99F
:10022000121F08C0042AFAD203E011F8013B00F8BB
:10023000013B521EF9D27047D2B201E000F8012B07
:10024000491EFBD270470022F6E710B513460A4656
:1002500004461946FFF7F0FF204610BD30B50446AE
:100260000020034600E05B1C934203D2E05CCD5CBF
:10027000401BF8D030BD70B5064604F065FE04683A
:1002800005460A220021304600F0F6F82C6070BDC9
:1002900070B5C1F30A5201F000450024C1F3130107
:1002A00040F2FF3341F480119A4201DA002070BD20
:1002B00040F233439A42A2F2334203DC524200F04E
:1002C0007CF800E090402C43F1D0404270BD00F03B
:1002D000004230F000400AD0C10D01F56071C0F35A
:1002E000160042EA0151C20840071143704700203E
:1002F0000146704701F0004330B421F0004150EA5C
:10030000010206D00A0DA2F56072C1F31301002AA2
:1003100002DC30BC00207047440F44EAC104C10035
:10032000E01830BC00EBC25000F0DEB830B50B4630
:10033000014600202022012409E021FA02F59D4215
:1003400005D303FA02F5491B04FA02F52844151EE9
:10035000A2F10102F1DC30BD2DE9F05F054600207D
:1003600092469B4688460646814640241BE0284626
:1003700041464746224600F020F853465A46C01AE6
:10038000914110D311461846224600F063FB2D1A06
:1003900067EB01084F4622460120002100F05AFB7E
:1003A00017EB00094E41201EA4F10104DFDC484692
:1003B00031462A464346BDE8F09F202A04DB203A16
:1003C00021FA02F00021704721FA02F3D040C2F175
:1003D0002002914008431946704700000FB40023E3
:1003E00000B589B00CA900910B996FF00042CB6069
:1003F0001E4B06931E4B07930423CDE901321D4A81
:10040000089202466B46002000F0E8FB09B05DF858
:1004100014FB70B586B006464FF0FF300091CDE971
:100420000101002015460C4604903246694604A896
:10043000FFF7D4FF02460498211825B108B10846F9
:1004400000E020462860049800280DD0002A02DD34
:100450000098884208D0081B0094CDE90104324678
:10046000694604A8FFF7BAFF06B070BD150E000874
:10047000330E0008A10A00082DE9F04791460F4607
:1004800080460446002614F8015B2DB100F004FB01
:100490000068405DC007F6D12B2D02D02D2D18D05D
:1004A000641E4A463946204600F0D4FC27B139681C
:1004B000A14201D1C7F8008071054FF002040BD5AD
:1004C0004042002803DD04F03FFD0460A007BDE8C2
:1004D000F08746F48066E4E70028F8DA04F034FD9B
:1004E00004606FF00040F2E70029A8BF7047401C8D
:1004F000490008BF20F00100704710B4B0FA80FC3A
:1005000000FA0CF050EA010404BF10BC704749B176
:10051000CCF1200421FA04F411FA0CF118BF0121E6
:1005200021430843A3EB0C01CB1D4FEA00614FEAC6
:10053000102042BF002010BC704700EBC350104495
:100540000029A4BF10BC7047401C490008BF20F020
:10055000010010BC7047F0B400F0004221F00041EF
:1005600020F00040CE0DC30DC1F3160141F400018F
:10057000C0F316004C42154640F40000761E09E018
:1005800010EB440002D582F0004240428842F7D886
:1005900040005B1EB342F9DA18B1F0BC0021FFF74E
:1005A000ACBF2846F0BC70472DE9FE4F804681EA7B
:1005B0000300C00F0C46009021F0004123F00045DD
:1005C000B8EB0200A94105D24046214690461C46A0
:1005D0000B46024623F00040104347D0270DC7F3D7
:1005E0000A00C3F30A510290401A019040286BDAC6
:1005F000C3F3130040F4801B0098924620B10023FF
:10060000D2EB030A63EB0B0B01985946C0F1400291
:10061000504600F01FFA06460D4650465946019ACC
:1006200000F027FA10EB08006141002487EA11521C
:1006300084EAE7731A4340D0009A62B3019A012A10
:100640004FEA075215DC001B61EB02014FF000423C
:1006500002EA0752CDE90042001C41F58011324602
:100660002B4600F055FC03B0BDE8F08F4046214614
:10067000F9E7001B61EB0201001C41F58013001833
:100680005B412018A2F5001747EB030140EAD57043
:10069000B6196D4111E06D084FEA360645EAC0759E
:1006A0004FEA0752001B61EB0201001C41F580116B
:1006B00049084FEA30000019514132462B4603B039
:1006C000BDE8F04F00F015BC009801224000002367
:1006D000D0EB020263EBE073009821464FEAE0742E
:1006E000B8EB000061EB0401E9E783F000435BE74E
:1006F00081F0004158E72DE9FE4F81EA030404F040
:10070000004421F0004100944FF0000B23F000431F
:1007100050EA01045ED052EA03045BD0C3F30A54EA
:10072000C1F30A552C44A4F2F3340194A0FB025403
:10073000C1F3130141F48011C3F3130343F4801395
:1007400001FB024400FB034E840A970A44EA8154E9
:1007500047EA8357A4FB076802958D0A05FB0785C6
:100760004FEA932C04FB0C542705029D4FEA0658D0
:1007700047EA1637B5EB08056EEB070C870E920EAD
:1007800047EA811742EA8312A7FB0201B6EB0B018D
:1007900064EB00042B0D43EA0C335E1844EB1C5051
:1007A000DA465146E7FB0201C5F313044FEA0B3367
:1007B00043EA14534FEA0432019C43EA0603A4F1CE
:1007C0000C040294009CCDE900B400F0A1FB03B03E
:1007D000BDE8F08F00200146F9E72DE9F04D81EAF0
:1007E000030404F0004B21F0004514464FF0000ACA
:1007F00023F0004150EA050220D054EA01021DD046
:10080000C5F30A570246C5F31303C1F31300C1F33E
:100810000A5640F4801543F48013A7EB0608101B1A
:10082000D64608F2FD3873EB050002D308F1010843
:1008300001E092185B41B8F1000F03DA0020014695
:10084000BDE8F08D00204FF48011064684460EE08E
:10085000171B73EB050705D3121B63EB0503064358
:100860004CEA010C49084FEA300092185B4150EA0B
:100870000107EDD152EA030012D082EA040083EAB4
:100880000501084305D0101BAB4106D2012200230D
:1008900006E000224FF0004302E06FF00102531027
:1008A0001AEB06004CEB085110EB0A0041EB0B0170
:1008B000BDE8F04D00F01DBB2DE9F041054621F0EB
:1008C00000400C46284309D0C4F30A5040F233419B
:1008D000884205DD28462146BDE8F0812846FBE731
:1008E00040F2FE31884210DC0CDB4FEA043040EA73
:1008F000155050EA053105D0104804F0004101437D
:100900000020E9E700200146E6E7A0F23340464236
:10091000C6F140022846214600F09CF8074688466A
:10092000284621463246FFF748FD43463A4600F046
:10093000E0FA3246BDE8F04100F08CB80000F03F2C
:10094000C1F30A52C1F3130140F2FF3341F48011A5
:100950009A4202DA00200146704740F233439A423D
:10096000A2F2334202DC5242FFF727BD00F072B818
:1009700030B5041E71F1000404DB4FF00044404226
:1009800064EB0101141E73F1000405DB1C464FF0FB
:100990000043524263EB04038B4208BF824230BDE6
:1009A00030B5041E71F1000404DB4FF000444042F6
:1009B00064EB0101141E73F1000405DB1C464FF0CB
:1009C0000043524263EB0403994208BF904230BD9A
:1009D00070B5044601F000450020054304D14FF0F6
:1009E0000045644265EB010103F00045284305D151
:1009F00018464FF00043524263EB0003101B73EBA9
:100A0000010002D24FF0004009E082EA040283EACA
:100A100001034FF000501A4301D14FF0C0404FEA9C
:100A20002062EFF3008162F31F6181F3008870BDE3
:100A3000064C074D06E0E06840F0010394E807002B
:100A400098471034AC42F6D3FFF7CAFBE8800008A1
:100A500008810008202A04DB203A00FA02F1002075
:100A600070479140C2F1200320FA03F319439040EC
:100A70007047202A06DBCB17203A41FA02F043EAFE
:100A8000E07306E041FA02F3D040C2F12002914047
:100A900008431946704700000048704788800008E6
:100AA00010B50446FFF7F8FF0068005D00F0010094
:100AB00010BD00002DE9FF4F087883B09946FF284C
:100AC00005D0491C2D2804D00024002008E0002077
:100AD0000BE00124F9E700EB800003EB4000491C28
:100AE0000B78FF2BF7D104B1404200230293147816
:100AF00019461D462D2C01D02B2C04D1521C2D2C17
:100B000013D000240294AA461478FF2C0FD00A2593
:100B1000A3FB057801FB05814FF0000C03FB0C11D2
:100B2000521CE3194AEB0101EEE70124EAE7814494
:100B300053EA010002D019F5C87F06DA03980021B4
:100B4000C0E9001107B0BDE8F08F0025AE4E2F467A
:100B5000DFF8B882184600F037FACDE90001B9F1A4
:100B6000000002DAC9F1000400E004460023A74AAD
:100B70001AEB030B42EB045A12E0E00707D02A46B7
:100B8000334638464146FFF7B6FD074688462A46B3
:100B9000334610461946FFF7AEFD05460E46641073
:100BA000002CEAD1DDE90001B9F1000F5A465346A5
:100BB00006DAFFF712FE3A464346FFF70EFE05E05F
:100BC000FFF799FD3A464346FFF795FD029A0AB1B1
:100BD00081F00041039AC2E90001B3E72DE9FF4F1C
:100BE0001F468DB0D7E901464FF0FF382E2045460D
:100BF0004FF000090B90B9696D1C0E988847396A4F
:100C0000824688470028F6D1BAF1FF3F0AD024F483
:100C1000D064002E11DDBAF12B0F08D0BAF12D0FE0
:100C20000BD102E0404611B08DE744F48064B9690D
:100C30006D1C0E9888478246761E6946600501D570
:100C40002D2000E02B208DF8000001F1010B0DF1AB
:100C5000200809E0B9696D1C0E98884782460F98F4
:100C600044F40074761E0560002E02DDBAF1300FE8
:100C7000F0D00B998A453ED144F0800406E00F99EC
:100C8000681CA9F1010944F400740860B9696D1C7D
:100C9000761E0E98884782463028F0D02BE00B99BC
:100CA0008A4505D1200603D444F08004761E18E05E
:100CB000504604F071FB08B30DF11301761E44F4A5
:100CC00000748B4508D2AAF130000BF8010B200606
:100CD00007D5A9F1010003E0200602D409F10100C3
:100CE0008146A00502D50F99681C0860B9696D1C82
:100CF0000E9888478246002ED1DC53E0002E51DD4D
:100D0000BAF1650F02D0BAF1450F4BD1A00549D514
:100D1000B9696D1C24F44074761E0E98884782468B
:100D2000002E0CDD2B2804D0BAF12D0F07D144F48E
:100D30008074B9696D1C0E9888478246761EE0055E
:100D400001D52D2100E02B2108F8011BCDF82C80C6
:100D500021E00DF12901761E44F4007488450CD27F
:100D6000AAF1300010F0FF0088F8000002D10B99C2
:100D7000884509D908F1010806E0E00501D52448B5
:100D800001E042F20F708146B9696D1C0E988847E8
:100D900082460F980560002E04DD504604F0FCFAF0
:100DA0000028D6D1F9690E988847FF208BF80000FB
:100DB00088F800000020069007904B466A4608A974
:100DC00006A8FFF777FEA00502D46FF001002AE71E
:100DD00014F0240F0AD0E00714D1DDE906123868B8
:100DE000031D3B600068C0E900120BE0DDE906016D
:100DF000FFF780FA0146E00704D13868021D3A6027
:100E00000068016028460EE7000014400000F03F33
:100E1000F1D8FFFF426842B1016811F8013B23B1EC
:100E2000521EC0E90012184670470121C160881E99
:100E3000704742685AB1C368016843B983688B42FE
:100E400005D0491E521CC0E90012002070474FF027
:100E5000FF3070472DE9F05F824600780027154685
:100E60008B460AF10104B946302801D09DB113E048
:100E700014F8010B0127782803D0582801D045B178
:100E80000AE00DB1102D07D10027102514F8010B31
:100E900002E0082500E00A250026B0460EE005FB2A
:100EA000080005FB06F1012701EB10461FFA80F848
:100EB000B6F5803F00D3B94614F8010B294600F07F
:100EC00075F80028EBDABBF1000F05D00FB1641EF6
:100ED00000E05446CBF80040B9F1000F06D004F012
:100EE00033F802210160C81EBDE8F09F48EA0640C1
:100EF000FAE710B5141E73F1000408DA401C41F142
:100F0000000192185B411A4301D120F0010010BD8D
:100F10002DE9F04D92469B4611B1B1FA81F202E003
:100F2000B0FA80F220329046FFF794FD04460F4657
:100F300040EA0A0041EA0B0153465A46084313D0DF
:100F4000114653EA010019D0C8F140025046FFF79C
:100F500034FA05460E46504659464246FFF77AFD9A
:100F6000084305D0012004E020463946BDE8F08D55
:100F70000020054346EAE0762C4337430A98630590
:100F8000E40AA0EB08000022FD0A44EA47540A30B4
:100F900002D500200146E9E7010510196941DDE9A4
:100FA000084500196941BDE8F04DA2E73A2800D292
:100FB000303820F02002412A01D3A2F137008842C4
:100FC00001D34FF0FF3070470EB540F2334202922A
:100FD0000022CDE900221346FFF79AFF03B000BDBF
:100FE00070B54FF0A0442DED028B20684025C0F372
:100FF000801000B125602B4E3068C0F380100028AF
:101000004DD09FED298AB0EE480A00F0F5FE274842
:10101000F0EE480A90ED050A254805F009FBD4F8E2
:10102000800181B223488180D4F8802092B202806E
:10103000D4F88431DFED200A9BB24380846C121B0C
:1010400000EE102AB8EEC00A20EE200A80ED090A50
:10105000C26CB1EE400AD21A01EE102AB8EEC11AE3
:1010600061EE200A9FED161AC0ED0A0A30EE600A02
:10107000DFED120A80ED0B0A90ED080A60EE200AFF
:1010800000EE101AB8EE400A20EE010A9FED0D1A8C
:1010900040EE010AC0ED080A01F0B2FA3560BDEC7D
:1010A000028B70BD00010050ACC52738F80000204D
:1010B000D43F0020540300204108043C6666663F8C
:1010C000CDCCCC3D7BDC7A3CFEE700000149002022
:1010D00008707047100000202DE9F05F2DED068BA1
:1010E0000546FA4C616800EE101AB8EE400ADFEDD2
:1010F000F80A2046002720EE208A03784FF0020BE2
:101100004FF0010A9FEDF33AF34A2830F6EE002A39
:10111000D2ED481A92ED470A4FF08049B1EE612AAC
:10112000DFEDEE3A9FEDEEAADFEDEE9A9FEDEE1ABF
:10113000EE4EDFEDEF8AA0F10802DFF8B883D2EDC2
:10114000000A112B13D2DFE803F012091352668252
:10115000AADEFBF9F8F7F6F5F4F3F200DB48676076
:10116000203080ED001A01F013F884F800B0C0E2DE
:10117000D5ED092AD54E30EE620A2036DFEDDE2AA3
:1011800040EE220AC6ED000AF4EEE10AF1EE10FA92
:1011900004DCF4EEC20AF1EE10FA1AD201F0EEF815
:1011A00084F801A0102020703068FFF790F841EC1F
:1011B000100BD2A053EC102B03F098FE686AFFF7D7
:1011C00086F841EC100BD2A053EC102B03F08EFEEE
:1011D0008FE295ED080AF0EE411A04F069FCD0495F
:1011E00060688842C3D301F0C9F8032055E080EE5F
:1011F000801AB94821EE030A80ED010A10EE100AA8
:10120000FFF765F841EC100BC6A053EC102B03F070
:101210006DFE042041E0AD4EB0EE418A80ED008AC3
:10122000203680ED018A86ED002AC6ED011A67603E
:10123000E76000F0ADFFD6ED000A95ED080AF0EE8C
:10124000481AB0EE481A04F033FC052025E00229C4
:101250008DD36760217BD5ED090A01F0010100EB18
:101260008100F0EE411A90ED000A30EE200A80ED88
:10127000000A964895ED080A203000EB8100D0ED79
:10128000000A04F015FCE06842F21071401CE060B6
:1012900088429DDB01F072F80620207029E290EC74
:1012A000020A30EE600A9FEDA51A8B4DC0EE010ACE
:1012B00081EEA00A20EE030A85ED020A10EE100A64
:1012C000FFF705F841EC100B9DA053EC102B03F039
:1012D0000DFE95ED560AB8EEC00ADFED9F0AB7EE97
:1012E000001A072060EE200A81EE200AD5ED020ADE
:1012F00095ED011A60EE800A21EE000AC5ED540A50
:1013000085ED550AC9E774486760D0ED010A6F485A
:1013100020EE200AF0EE080A203020EE200A20EE0F
:10132000220A80ED000A00F033FF0820B5E7DBE178
:101330007EE129E180E06CE061E028E015E0FFE774
:1013400020EE880AF0EE411A60EE220A95ED080AB6
:1013500004F0AEFB18EE100A48459FDB96ED040A38
:10136000092084ED060A676097E768EE281A95ED74
:10137000080A04F09DFB18EE100A48458EDB96ED36
:10138000040A84ED070A00F0F9FF0A2085E794EDCE
:10139000070AD4ED060AB0EE001A30EE600AF0EE4D
:1013A000C00A81EE200A10EE100AFEF790FF41EC11
:1013B000100B03F07DFE51EC100BFEF769FF464D5C
:1013C0000146286065A003F091FD28681E2803DD12
:1013D00084F801B0102060E7D4ED070A94ED060A06
:1013E000F4EEC00AF1EE10FA01D22F6101E0C5F867
:1013F00010A05FA0296903F079FD0B204DE7E7609D
:1014000084ED041A84ED051A676000F0C1FE0C201B
:1014100043E720EE880AD4ED051A60EE220A95ED26
:10142000080A04F045FB18EE100A484595DB676092
:101430003088A0600D2030E794ED050AB0EE419AA7
:1014400070EE231AC4ED051A95ED080A04F030FB7E
:10145000D4ED040AB4EEE08AF1EE10FA23DD1E4862
:1014600094ED050A3288016820EE0A1A00EE101A7F
:10147000B8EEC00A20EE280AC1EE001ABDEEE10A5D
:1014800010EE100A30EEA90A101AC20FC2EB823217
:101490001318E068B0EBC11F48F8203084ED040A4F
:1014A00001DA401CE0600C4890ED000AB8EEC00A7A
:1014B00020EE280AC0EE280AF4EEC80AF1EE10FA6F
:1014C0007ED884ED049A0E206760E6E610000020C6
:1014D000ACC52738ABAA2A3FCC01002098C4833979
:1014E00000FC7F460000003C00000000F8000020E7
:1014F000DB0FC940A8030020ACC5A738766F6C7419
:10150000616765735B305D203D2025660A0D000034
:10151000666F632D3E695F61203D2025660A0D00E0
:10152000F824010070686173655F72657369737494
:10153000616E6365203D2025660A0D00CCCC4C3ED3
:1015400070686173655F696E64756374616E63650D
:10155000203D2025660A0D00BD378635506F6C652D
:10156000207061697273203D2025640A0D0000001F
:10157000456E636F646572206469722072657620BF
:101580003D2025640A0D000094ED050A70EE631AF3
:10159000C4ED051A95ED080A04F08AFAD4ED040AA0
:1015A000B4EEE08AF1EE10FA29DDE068002826DDCD
:1015B00094ED050A524920EE0A1A91ED000A00E066
:1015C00091E0B8EEC00A328858F8203020EE280AA0
:1015D000C1EE001ABDEEE10A10EE101A30EEA90AB3
:1015E000511ACA0FC2EB82320A441A4402EBD27279
:1015F000521048F82020401EE06084ED040A404864
:1016000090ED000AB8EEC00A20EE280AC0EE280AC3
:10161000F4EEC80AF1EE10FA6BD83088A1680844DD
:1016200000EBD0704010A06000F0A8FE0F2034E660
:10163000334A002108461268314D04E0314B53F81B
:101640002030401C1944B0EBC21FF7DBD00191FBE6
:10165000F0F12DA0696103F049FCA06843F6FF7129
:10166000C00190FBF1F0802300218346A060584226
:1016700000EBD07903EBD37C00274FEA69021BE033
:101680002E6806FB01F0C0014FEAE07800EB5860DD
:1016900012EBE01003D500BF00EBC61007E04FF0DF
:1016A000FF3808EBC618804501DA7642F4E7154E9C
:1016B000521C56F820000744B2EB6C0FE0DB97FB9E
:1016C000F3F20BEB01007F2800DD8038AE8A05EBDA
:1016D0004000921B491C02838029CDDB1B20C5F8EA
:1016E00018A100F091FE04E061780DA003F0FEFB6C
:1016F00027706068401C6060BDEC068BBDE8F09F01
:10170000CC010020A8030020456E636F6465722041
:101710004F6666736574203D2025640A0D00000045
:1017200043616C6962204572726F722025640A0DF4
:101730000000000004480021C0F8181101210161D7
:101740000248017070470000CC010020100000200A
:101750002DE9F041E54D06462DED068BF0EE60AA31
:10176000F0EE409A9FEDE29A2946D5F82401D1ED9A
:10177000521AE04C0628B1EE611A4CD2DFE800F0B4
:10178000034C95B5EFEE96ED000A95ED5E8AF0EE0E
:10179000000A30EE6A0A28EE20AA30EE080AF0EEBF
:1017A0004A0A03F02BFCB5EEC00AF1EE10FA01D2A2
:1017B00030EE0A0AD6ED030A96ED011A30EE480A19
:1017C00031EE691A20EE200AD6ED040A00EE810AF5
:1017D000D6ED020A30EE201A95ED530AB1EE408A9A
:1017E000B4EEC18AF1EE10FA02D2F0EE410A01E045
:1017F000F0EE480AB4EEE00AF1EE10FA02D2B0EED2
:10180000408A06E0B4EEC18AF1EE10FA01D2B0EEE1
:10181000418A84ED038A0DE195ED531AD6ED020A53
:10182000B1EE410AF4EEC00AF1EE10FA02DDF0EE7C
:10183000601A01E0F0EE401AF4EEC11AF1EE10FA6F
:1018400002DDB0EE410A06E0F4EEC00AF1EE10FA55
:1018500001DDB0EE600AD5ED4A0AD4ED031A60EE60
:10186000890A30EE611AF0EEE00AB1EE600AB4EED9
:10187000C01AF1EE10FA02DDB0EE412A01E0B0EE3E
:10188000402AB4EEE02AF1EE10FA02DDB0EE600A72
:1018900006E0B4EEC01AF1EE10FA01DDB0EE410A36
:1018A00031EE808A84ED038A19E196ED010AB4EEE7
:1018B000C10AF1EE10FA02DDF0EE400A01E0F0EEAE
:1018C000410AF4EEE10AF1EE10FA02DDB0EE611A1F
:1018D00006E0B4EEC10AF1EE10FA01DDB0EE401AF6
:1018E00084ED021AF0EE418AD1E096ED010AB4EEE1
:1018F000C10AF1EE10FA02DDF0EE400A01E0F0EE6E
:10190000410AF4EEE10AF1EE10FA02DDB0EE611ADE
:1019100006E0B4EEC10AF1EE10FA01DDB0EE401AB5
:1019200095ED4B0AD4ED021A20EE090A31EE611A48
:10193000F0EEC00AB1EE600AB4EEC01AF1EE10FA91
:1019400002DDB0EE412A01E0B0EE402AB4EEE02A1A
:10195000F1EE10FA04DDB0EE600A08E019E013E0E1
:10196000B4EEC01AF1EE10FA01DDB0EE410AC0EE9D
:10197000090A71EE808AC4ED028A95ED030A20EE11
:10198000800A84ED030A82E096ED000A84ED010AE4
:1019900056E020789FED58AA584F88B105F5987009
:1019A00096ED000A94ED021AD4ED010AD0EC031A68
:1019B00003F07AF887ED04AA00203875207001E062
:1019C000387DB8BB97ED040AD7ED030AB4EEE00A00
:1019D000F1EE10FA0ADD96ED000A012084ED010A0D
:1019E00084ED02AA84ED03AA387523E002F0F0FF2B
:1019F00097ED000A424884ED010AD7ED010AC4EDD3
:101A0000020AD7ED020A95ED031A60EE810AC4EDD1
:101A1000030AD0ED040A30EE600AB0EEC00A10EE00
:101A2000100AB0F17E5F05DA97ED040A30EE090A7C
:101A300087ED040AD5F82401042826DB94ED010A79
:101A400095ED4F1A70EE6A0A94ED020A01EE200A33
:101A5000D5ED520AF1EE608AF4EEC08AF1EE10FA8A
:101A600002D2B0EE401A01E0B0EE681AF4EEC10AFC
:101A7000F1EE10FA02D2F0EE608A06E0F4EEC08ACF
:101A8000F1EE10FA01D2F0EE408A022827DB78EE60
:101A9000E91AD5ED500A94ED030A94ED041A00EE0C
:101AA000A10A30EE018A95ED530AF1EE400AF4EEF8
:101AB000C80AF1EE10FA02DDB0EE608A0FE0B4EE73
:101AC000C80AF1EE10FA02D2B0EE408A07E095EDB6
:101AD000510A20EE090A00EE211A84ED041AB0EE34
:101AE000480ABDEC068BBDE8F0810000CC01002067
:101AF000ACC527389400002000000000BC3F002047
:101B0000F80000200348044980ED000A0120087015
:101B100070470000A83F00209400002010499FED6E
:101B20000F0A104A81ED040AD2ED040AC0ED000A42
:101B300080ED010A80ED020A80ED030A80ED040ABF
:101B4000D2ED040A0020C1ED010A81ED020A81ED07
:101B5000030A08700449012008757047000000005E
:101B600094000020F8000020BC3F00201C214FF40E
:101B7000405000F030B910B54FF48054204600F0CA
:101B80002FF840F004012046BDE8104000F023B9D2
:101B900010B54FF48054204600F022F820F00401E4
:101BA0002046BDE8104000F016B970B500F011F8FD
:101BB00005460A2002F01AFE00F00EF804460A203C
:101BC00002F014FEC5F30A01C4F30A0000EAC120C2
:101BD00070BD002000F004B84FF40060AFF3008047
:101BE00010B540F400414FF090441020A062012055
:101BF00002F0E8FD1021A161C0F30A0010BD10B58C
:101C000086B0002000F07BF8142002F0EFFD0120E8
:101C100000F075F8FFF7AAFF642002F0E7FD00244A
:101C20000120CDE90140CDE903400346224621468B
:101C30002046009400F08DF8642002F0D7FD0D22BC
:101C40000A21032000F0A3F8642002F0CFFD012157
:101C50000D230A22084600F0A3F8642002F0C6FD16
:101C6000002201940294039404940223012110465B
:101C7000009400F050F8642002F0B8FD0520012324
:101C800000901A460021184600F095F8642002F0F2
:101C9000ADFD4FF48050FFF7A3FF242802D0601E53
:101CA00006B010BD4FF4C050FFF79AFFA0F5407189
:101CB000AD3902D06FF00100F2E74FF40050FFF7AA
:101CC0008FFFA0F5A061AD3902D06FF00200E7E709
:101CD0004FF44050FFF784FFB0F5207F02D06FF043
:101CE0000300DDE74FF42050FFF77AFFA0F5806195
:101CF000553902D06FF00400D2E70020D0E7002869
:101D00004FF090414FF0080001D0886100E08862F8
:101D1000022002F060BDF0B48002DDE9044540EA33
:101D2000412040EA0220DDE9066740EA831040EAEC
:101D3000441040EA051040EAC60040EA8700DDF89A
:101D400020C0F0BC40EA0C0081B24FF4405000F0DB
:101D500042B8F0B44002DDE9044540EA012040EA1F
:101D6000C210DDE9066740EA431040EA041040EA89
:101D7000C50040EA860040EA4700DDF820C0F0BC1C
:101D800040EA0C0081B24FF4805000F024B8000209
:101D900040EA0110104381B24FF4C05000F01BB86C
:101DA000800240EA012040EA0210184381B24FF459
:101DB000005000F010B810B4800240EA012040EA60
:101DC0008210019C40EA0310204381B210BC4FF402
:101DD0002050AFF3008018B5C1F30A0101434FF062
:101DE00090441020A0620846694605F0A1FD10202D
:101DF000A06118BD7047000070B5644D644C284662
:101E00002DED028BB0EE408AD5F81811006943F62B
:101E1000FF7689B318B100F0C9F8301A01E000F07C
:101E2000C5F8208080B2012202EBD012C10902F075
:101E30007F0205EB410105EB4202B1F91810B2F93E
:101E4000182020F07F03C31A521A534301EBE31109
:101E5000401AB0F5804F03DBA0F57C50FF3802E05C
:101E6000002800DA30446060A168411AB1F5005FD3
:101E70000DDBE168491E0FE0FFE718B100F096F8AE
:101E8000301A01E000F092F8208080B2EBE711F503
:101E9000005F02DCE168491CE16000EE100AA0600E
:101EA0009FED3D2AF8EEC00A9FED3A0A80EE801AB7
:101EB000D4ED030AF8EEE01AF8EEE00A31EE211A4A
:101EC00084ED041A71EE601ADFED340A51EE820AD5
:101ED000C4ED050A6969D5ED001A401A00EE900AB2
:101EE000B8EEE12AF8EEE00A20EE822AC2EE000AFD
:101EF0009FED2B2ABDEEE00AB8EEC00A30EEC00A14
:101F000060EE020AC4ED070AF5EEC00AF1EE10FA1F
:101F100001D270EE820A0120C4ED070A94ED060A90
:101F200084ED061A31EE400AC0EE080AB0EE600AEF
:101F3000C0F1270104EB810191ED0B1AC0F12801DA
:101F400004EB810171EE200A401C81ED0B1A282858
:101F5000EEDB84ED0B0A9FED131A80EE810AF0EEA2
:101F6000000A9FED111A84ED080A60EE200A20EEA7
:101F7000020A60EE810AC4ED0A0AF8EEE10A20EED8
:101F8000200A84ED090ABDEC028B70BDCC01002053
:101F9000F800002000FC7F46C3F5C840C3F5484068
:101FA000DB0FC94000002042DB0F494038B5064D29
:101FB0004FF480540020AC62694605F08DFCAC61A2
:101FC000BDF80000800838BD0004004872B6FEE786
:101FD000014800F00CBD000074400020F0B5D1E9CC
:101FE00001650C692C430D68BEB145F080452C435A
:101FF000D1E90665354391F820704E69406D46EA97
:1020000007663543CE6803EBC303354300EBC300DB
:102010000023E0E802450C4D0FE044EA8544E7E781
:10202000D418D65CE77846EA0766A77864783F0458
:1020300047EA0424264340C01B1DCC6805EB14442A
:1020400024789C42ECD8F0BDAC7F00082DE9F0412B
:102050000F46064604F010F9002856D12C4C216892
:10206000890521680DD521F4007121602168490599
:1020700005D5216821F48061216003250AE001254E
:1020800008E0490505D5216821F480612160022519
:1020900000E00025374416E06069F1B220F4FC70DE
:1020A00040EAC1006061606940F0020060616069FF
:1020B00040F48030606104F0DFF8616921F4FD7163
:1020C000616110B9761CB742E6D8012D01D0032D0D
:1020D0000BD1216841F400612160216821F4006185
:1020E0002160216841F400712160022D01D0032D8F
:1020F0000BD1216841F480512160216821F4805185
:102100002160216841F480612160BDE8F081000018
:102110000020024005494FF0FF304A6942F000427A
:102120004A614969002900DA002070470020024016
:102130002DE9F04116461F46054604F09DF800289B
:102140000ED1084C606940F0010060612E60BFF361
:102150006F8F6F6004F090F8616921F00101616197
:10216000BDE8F08100200240064900204A69002AAB
:1021700007DA054A8A60054A8A604969002900DA57
:10218000401E70470020024023016745AB89EFCD18
:1021900010B5EFF3108472B602F09CFA84F3108845
:1021A00010BD000030B504462DED068BF0EE609AB0
:1021B000B0EE40AA89B0D0ED0A0A90ED0B0A90ED7E
:1021C000098AB0EE619A30EEC00ADFED620A04A916
:1021D00001A860EE208AB0EE410A03F0C9FFDDEDF0
:1021E000040A9DED011A28EE200A68EEA00A08EE06
:1021F000810A48EE410A94ED0C1ADFED571A21EEE0
:10220000212A9FED561A564D3AEE40AA00EE012AB9
:1022100079EEE09A84ED0C2A94ED0D2A62EE211AF3
:1022200040EE811AC4ED0D1A95ED540A94ED101A82
:10223000D4ED110A00EE0A1A40EE290A94ED080ABC
:10224000DFED481AB7EE002A60EE211A82EE210A6D
:1022500060EE018A20EE208A28EEA80A08EE080A1D
:1022600002F096FFF0EE400A9FED3F1A81EE200A41
:1022700010EE100AB0F17E5F12DA68EE808A28EE66
:10228000008AD4ED100A9FED390A60EE800AC4ED91
:10229000100AD4ED110A20EE800A84ED110A15E02F
:1022A00095ED551A9FED320AD4ED100A21EE001A71
:1022B0004AEE010AC4ED100A95ED551AD4ED110A43
:1022C00021EE000A49EE800AC4ED110A94ED0C0AD1
:1022D000D4ED0D0A03A920EE280A02A8B0EE491A8F
:1022E00008EE200AF0EE480A84ED0E0AB0EE680A05
:1022F00004F00AF807AA06A905A8DDED030A9DED7A
:10230000020A05F041FBDDED050A9FED1A0A1A49A4
:1023100060EE800AFCEEE00A10EE900A80B20860DF
:10232000DDED060A091F60EE800AFCEEE00A10EE01
:10233000900A80B20860DDED070A091F20EE800ACE
:10234000BCEEC00A10EE100A80B2086009B0BDEC05
:10235000068B30BD3ACD133F3333733FCDCC4C3D6C
:10236000CC010020ABAA2A3FAC5C313FA4707D3F7A
:10237000ACC52738008054453C2C014010B5EFF324
:10238000108472B602F08EF984F3108810BD00003C
:102390009FED050A80ED0C0A80ED0D0A80ED100A14
:1023A00080ED110A70470000000000002DE9F047A1
:1023B000DFF844909FED0F0A0027044689ED140AC8
:1023C0003E464FF47A783D46642002F00FFA2088AA
:1023D0006D1C0744608845450644F5DB97FBF8F023
:1023E000A06496FBF8F0B7EE000AE06489ED140AE9
:1023F000BDE8F08700000000540300200148007889
:10240000704700005000002070B50024574A254650
:102410001B2808D01378611E052B33D2DFE803F0A8
:10242000780872788100012050702846957070BD40
:102430004E4E103E732863D00CDC6D283CD004DC7B
:10244000632841D0642863D11AE070281BD0722819
:102450005ED108E075283DD076281ED0782828D097
:102460007A2855D142E0BFF34F8F41480168414A75
:1024700001F4E06111430160BFF34F8F00BFFDE73E
:1024800004F014F970E03C484069FDF720FF41EC8E
:10249000100B3AA053EC102B08E03D48006AFDF702
:1024A00016FF41EC100B3BA053EC102B02F01EFD6D
:1024B0005AE004F0D9F957E0706848BB3948D0F8C1
:1024C000180128B3022002E0706808BB0320507096
:1024D000957049E002F02EFC040005D032A002F015
:1024E00005FD601C15D03FE037A03BE0FFF787FB00
:1024F000EFF3108072B67560B56080F3108833E03A
:102500000420E4E7712806D0772807D06D282BD067
:102510000C4634A026E003F03FFC25E003F0F8FC75
:1025200022E00D2816D01149082891F8431014D044
:102530000E4BDB1CC85492F84310491CC9B282F8F8
:102540004310402901D382F8435001462AA002F0EB
:10255000CDFC09E004F09AFC06E029B1491E82F89E
:10256000431026A002F0C2FC204670BD500000209F
:102570000CED00E00400FA05F8000020506F7369CC
:1025800074696F6E3A20252E34660A0D0000000033
:1025900054030020566275733A20252E3466205667
:1025A0000A0D0000CC0100205573657220436F6E48
:1025B00066696720557064617465204641494C2105
:1025C0000A0D0A0D000000005573657220436F6EFE
:1025D00066696720557064617465204F4B210A0D50
:1025E0000A0D0000496E76616C6964207374617431
:1025F00065210A0D00000000256300000820080086
:102600002DE9F047434C60684FF001094FF0000A94
:1026100010B184F8009001E084F800A03D4D103521
:1026200068782978884207D003F07AFDA87818B135
:102630006878287003F02AFD2878002868D0364F83
:10264000DFF8D880022805D0032827D14046FEF7BE
:1026500043FD23E0324E3348D6ED050A96ED0A0AD3
:10266000FFF776F8F0EE400AC8ED0F0A96ED071A6C
:102670009FED2D0A2948F0EE411AFFF793FD96EDE4
:10268000080AD7ED590AB0EEC00AB4EEE00AF1EE3E
:1026900010FA03DD606840F08050606098ED080A31
:1026A000D7ED580AB4EEE00AF1EE10FA05DB84ED3E
:1026B000030A606840F080406060D7ED570AB4EECE
:1026C000E00AF1EE10FA03D8606840F00050606054
:1026D000164910200969884308D06068A1688842BB
:1026E00004D0FFF762FA6168084360606068A1681F
:1026F00088420DD0606828B1FFF740FE85F8019050
:1027000085F802A061680AA002F0F0FB6068A06092
:10271000BDE8F08740000020CC01002054030020D9
:10272000F8000020A83F002000000000000800483A
:102730004572726F7220436F64653A2025580A0D06
:102740000000000030B590F85C30012B07D0022B60
:1027500005D0016E41F002010166012030BD046820
:10276000A36D4D0701D0DD071DD011F0380F01D04A
:102770009D0718D511F4E07F01D05D0713D511F442
:10278000F05F01D01D070ED511F4604F01D0DD06BA
:1027900009D511F4403F01D09D0604D511F47C0FFA
:1027A00005D05D0603D4E56D45F00105E5654C07F0
:1027B00001D0DC071DD111F0380F01D09C0718D4CF
:1027C00011F4E07F01D05C0713D411F4F05F01D065
:1027D0001C070ED411F4604F01D0DC0609D411F4AB
:1027E000403F01D09C0604D411F47C0F06D05B0658
:1027F00004D50368DC6D44F00204DC650B0604D5E7
:10280000036853F8DC4F14431C60CB0504D5036800
:1028100053F8E04F14431C600068426D0A43426560
:10282000002030BD70B5044690F85C00022803D04B
:10283000206E40F0080007E02068D0F8C4309B020A
:1028400005D5206E40F400702066012070BDD0F8E0
:10285000C400C0F301452B462046FFF7BFFB2168AB
:102860000120A840C1F8CC00A065002070BD10B5C3
:1028700090F85C20012A07D0022A05D0016E41F0B1
:1028800002010166012010BD0A687AB10B7B0A695A
:102890000C7A42EA43734A69406C496842EA84729E
:1028A00000EBC100C0E90032002010BD0B7A4A697C
:1028B0000C8A42EA83720B7B006CDB06496843EAB0
:1028C00004431A4340F82120EEE790F85C30012BD6
:1028D00007D0022B05D0016E41F0020101660120F4
:1028E00070470068012A826D03D00A438265002088
:1028F00070478A43FAE7704770470000F0B590F8D8
:102900005C40022C03D0016E41F008014DE00468E8
:1029100040293DD0D4F898502D0743D0D4F89840A2
:10292000C4F30126D0F84C4006EBC60504EBC50401
:10293000256815F080455560256839D025F060453B
:1029400015602568284F05F00055956020CC05F0EE
:102950000045156134F8045BADB2D56154F8045CF0
:1029600005F47025D56054F8045C05F480155561B4
:1029700054F8045C05F40015956154F8045CC5F343
:102980000665156254F8045CED0F5562002518E0E9
:10299000D4F890502D0705D0D4F89040C4F3012608
:1029A000846CC1E7016E41F4807101660120F0BDC5
:1029B000C5F38A45C4E700BF14F805C003F805C095
:1029C0006D1CD2F80CC007EB1C4C9CF800C0AC4549
:1029D000F2D80068402903D0C0F89C600020F0BD08
:1029E000C0F89460FAE70000AC7F000870472DE95A
:1029F000F04704460068016D466D01F4E0510E4059
:102A0000016D476D01F007010F40016D426D01F04E
:102A1000380102EA0108016D456D01F471010D40B4
:102A2000016D426D01F4602102EA0109016D490660
:102A300007D5416D490604D5402101652046FFF7C1
:102A4000D5FF2068016DC9050DD5416DC9050AD5B1
:102A5000D0F8D820D0F8E01011404FF48072026511
:102A6000204600F0F2F92EB1206806653146204676
:102A700000F0EDF92FB1206807653946204600F0D7
:102A8000AFF9B8F1000005D021680865414620463D
:102A900000F0C2F92068016D890508D5416D8905EE
:102AA00005D54FF400710165204600F0D1F920688A
:102AB000016D09060CD5416D090609D5D0F8D42061
:102AC000D0F8DC10114080220265204600F0BEF9EB
:102AD0002068016D890408D5416D890405D54FF43E
:102AE00000510165204600F0AFF92068016D09042E
:102AF00008D5416D090405D54FF400410165204614
:102B000000F0A1F92068016D490409D5416D49041F
:102B100006D54FF480410165206E40F080002066AC
:102B2000B9F1000005D02168086549462046FFF745
:102B3000E3FE25B120680565206E28432066206EDF
:102B4000002802D02046FFF7D6FEBDE8F08700003F
:102B50002DE9F041040006D0DFF8E88194F85C002C
:102B6000002518B107E00120BDE8F08184F85D5030
:102B7000204600F0EFF82068816921F010018161A2
:102B800001F05AFE0646032705E000BF01F054FE9F
:102B9000801B0A2811D8206880690007F6D42068B5
:102BA000816941F00101816101F046FE06460BE0BA
:102BB00001F042FE801B0A2806D9206E40F0010079
:102BC000206684F85C70CEE720688069C007EFD08B
:102BD0002068816941F0020181612168414502D18B
:102BE000594960680860207C01282068816937D0D5
:102BF00041F040018161607C01282068816932D008
:102C000021F480418161A07C0128206881692DD058
:102C100041F48051816120688169A26821F440718A
:102C2000114381612068816921F0A40181612068DC
:102C3000016921F010010161E068012819D010B389
:102C400002281BD02068816941F0800181612068E1
:102C5000016941F010010161E06803280ED012E023
:102C600021F04001C6E741F48041CBE721F48051D7
:102C7000D0E72068816941F0040103E020688169A0
:102C800041F020018161207EE26940066FF0FF0182
:102C900001EB0222A0F100701043226AA38A521EA7
:102CA00010430A0202EB034318432368D861A0686B
:102CB000B0F5407F10D1D4E90A0301EB0321401E97
:102CC0000843216B131303EB01110843A18C02EBA2
:102CD000014108432168C860206850F8C01FE26BBA
:102CE0001143016019482064216851F8802FA38E98
:102CF00022F4F81242EA03420A6014497031616416
:102D0000216851F8802F94F8383022F0706242EA3E
:102D100003620A600D49B031A1640D49E1640C49B8
:102D2000D83121650A49F031616500F5547120C040
:102D30008842FCD3A5652566012084F85C0000204C
:102D400012E70000006400400065004000A400405D
:102D500088A5004010B598B00446142111A8FDF7CD
:102D600072FA44216846FDF76EFA1B4920688842D2
:102D700030D18014009040030C90684600F0FAF8BF
:102D800008B1FFF723F91548816D41F000718165A5
:102D9000816D01F000711691C16C41F00101C164B7
:102DA000C06C11A900F0010016904FF4C0501190B2
:102DB0000220129000201390149009201590C00654
:102DC00000F048F800220121152000F0A7F8152096
:102DD00000F097F818B010BD0064004000100240E9
:102DE00000B58BB0C80710D0094B6A46402109488E
:102DF000FFF784FD002808D1054900980C39486088
:102E0000039A120C8A6002F0BBFE0BB000BD0000FA
:102E1000E400002074400020704790F85C10012905
:102E200005D0016E41F004010166012070470221C6
:102E300080F85C1001688A6922F001028A61002131
:102E40000166084670477047704770477047704783
:102E500070470000F0B50022012503234CE000BFBD
:102E600005FA02F73C4246D00C7904F00304012C29
:102E700001D0022C12D184684FEA420C03FA0CF6FE
:102E8000B443CE6806FA0CF62643866044680E7991
:102E9000BC43C6F300169640264346600C79E443D3
:102EA000A40708D0C668570003FA07F4A6438C6845
:102EB000BC403443C4600C7904F00304022C0FD1ED
:102EC000D40800EB84073C6A56074FEAD66C0F26FD
:102ED00006FA0CF6B4430E6906FA0CF626433E6277
:102EE0000468570003FA07F6B4430E7906F00306A8
:102EF000BE4026430660521C0C6834FA02F6AFD17D
:102F0000F0BD002809DB00F01F02012191404009BB
:102F1000800000F1E020C0F80011704770B5144B3C
:102F20001B68C3F30223C3F10706042E00D904264D
:102F30001C1D072C01D2002300E0DB1E012505FA31
:102F400006F4641E0C409C409D406D1E15402C43B1
:102F500000284FEA041104DB00F1E02080F800149F
:102F600070BD00F00F0000F1E02080F8141D70BD6E
:102F70000CED00E02DE9F8430646006800253C4CC6
:102F800000035ED5A06D0027C00008D4A06D40F0FE
:102F90008050A065A06D012700F080500090DFF800
:102FA000D490D9F8001041F48071C9F8001001F0F4
:102FB00043FC804606E000BF01F03EFCA0EB0800A9
:102FC00002282BD8D9F80000C005F5D5D4F8900018
:102FD00010F4407014D0316C814211D0D4F89000BC
:102FE000D4F8901020F4407041F48031C4F890106F
:102FF000D4F8901021F48031C4F89010C4F89000F7
:10300000C00711D001F018FC804641F2883907E072
:1030100001F012FCA0EB0801494501D903250BE0A2
:10302000D4F890008007F3D5D4F89000316C20F4E8
:1030300040700843C4F890001FB1A06D20F080508C
:10304000A0653088C0040FD5D4F88800316B20F01B
:1030500040700843C4F88800306BB0F1807F03D122
:10306000E06840F48010E0602846BDE8F883000086
:103070000010024000700040FEE7000010B5214C37
:10308000606801F0D3FB002839D001F0D5FB606007
:10309000FFF7B4F940F2DC514FF6FF72012808D077
:1030A0004FF4967302280AD0032811D0042823D1A4
:1030B00026E0208820B3642818D100201AE0208858
:1030C000F0B16428F9D0C8281AD09842F5D00DE0A4
:1030D0002088A8B16428F0D0C82811D09842ECD03C
:1030E000B0F5C87F0CD0B0F5FA7FE6D0884203D3A4
:1030F000228001E000F008F82088401C208010BDEC
:103100000120F7E708000020034A4FF4005108B1FE
:1031100091617047916270470008004830B54FF0E8
:10312000A0444B68A46800220E4D04F00104AD6871
:1031300005F001052C4302D00122104630BD0A4D96
:1031400053B10C681C43D1E902310B4381681C4325
:1031500029400C438460F0E7836809682B400B43E7
:103160008360EAE700010050E030C0FF10B54B6813
:103170008468002214F0010F02D00122104610BD15
:1031800033B1D1E902342343C46824F0047403E06A
:10319000C368CC6823F004732343C360D1E90031D2
:1031A0000B43C16C6FF308010B43C364E6E710B532
:1031B000C36C01F01F011F248C40C2F38462A3433F
:1031C0008A401343C36410BD30B58368002213F0F6
:1031D000010F02D00122104630BDD1E90034234353
:1031E0008968C4684CF21805AC4321430B43C360A3
:1031F000F1E7000070B54C688368002213F0010FFE
:1032000002D00122104670BD002C0E4B0C6807D076
:103210008D682C43D1E9035635432C434D6904E0B6
:10322000CD682C43D1E9045635432C43C5681D4075
:103230002C43C4604968036B23F00F030B43036303
:10324000E0E700001CC0F0FF042303EAD15310B5EF
:1032500018444369C1F3045107248C40A3438A40B6
:103260001343436110BD000010B550F8B03FC1F3E7
:103270001204A34302F01804024AE2400A40134336
:10328000036010BDFFFF0700D0F8C0206FF30D02F0
:103290000A43C0F8C020026922F4803201B1012142
:1032A00042EA0141016170478268044B01F08041AC
:1032B0001A400A4342F0004181607047C0FFFF3F5F
:1032C000044908B5CA6C0243CA64C96C0140009144
:1032D00008BD000000100240044908B5CA6C024352
:1032E000CA64C96C0140009108BD00000010024092
:1032F000044908B5CA6C0243CA64C96C0140009114
:1033000008BD000000100240F0B50A680F2692FACE
:10331000A2F2B2FA82F303248AE001259D402A40FA
:103320007ED04D68012D01D0022D20D18D68876897
:1033300092FAA2FCBCFA8CFC4FEA4C0E04FA0EFC8A
:1033400027EA0C0792FAA2FCBCFA8CFC4FEA4C0C60
:1033500005FA0CF52F438760CF680D68D0F804C0DC
:103360002CEA050C7D434CEA050CC0F804C00F693B
:10337000D0F80CC092FAA2F5B5FA85F54FEA450EE1
:1033800004FA0EF52CEA050C92FAA2F5B5FA85F5C9
:103390006D00AF404CEA070CC0F80CC04D68022D20
:1033A0002FD1FF2A15D8D1F814C0056A92FAA2F7D6
:1033B000B7FA87F7BF0006FA07F7BD4392FAA2F7FC
:1033C000B7FA87F7BF000CFA07FC45EA0C0505625F
:1033D00017E0D1F814E0476A150A95FAA5FCBCFA83
:1033E0008CFC4FEA8C0C06FA0CFC95FAA5F5B5FAA4
:1033F00085F5AD0027EA0C070EFA05FE47EA0E0731
:1034000047624D68076892FAA2FCBCFA8CFC4FEA4E
:103410004C0C04FA0CFE27EA0E0792FAA2F200E026
:1034200005E0B2FA82F2520095402F4307605B1C20
:103430000A6832FA03F57FF470AF0020F0BD4FF454
:103440007A71B0FBF1F14FF0E020491E416100219B
:10345000816105210161704710B50024C02823D186
:103460001248D0F8880000F0C00040F44000403816
:10347000B0F540000AD040280CD080280FD001F0D1
:1034800071F901F03FF901F04DF901E001F06AF93D
:10349000044609E000F068F830B1054C04E000F0A3
:1034A0006BF808B14FF40044204610BD00100240F4
:1034B0000024F40070B5002429492A4D4FF4004639
:1034C000032804D00C281AD030282FD040E0D1F89F
:1034D00088006FF4403100F0030040F440304018A1
:1034E0000AD0012836D002282ED001F03BF901F095
:1034F00009F901F027F917E001F034F914E0D1F8E7
:10350000880000F00C0040F44020001FB0F540207F
:10351000F2D004281ED0082816D000BF01F022F9EE
:1035200001F0F0F801F0FEF8044611E0D1F888004F
:1035300000F0300040F440101038B0F54010DBD0FF
:10354000102807D02028E9D100F016F800B1344641
:10355000204670BD00F008F80028F9D02C46F7E7A7
:10356000001002400024F40002480068C0F38020EC
:1035700070470000001002400248D0F89000C0F3ED
:103580004000704700100240064A10B552F8881FEC
:10359000C0F3044303249C40C0B2A14398400143BC
:1035A000116010BD0010024003498A6822F0F00249
:1035B00002438A60704700000010024010B50368A3
:1035C0000122C3F3801373BBD1E900231A43D1E96D
:1035D000033423431A434B691A438B691A43CB695B
:1035E0001A430B6A1A4303684FF6BF74A3431A4386
:1035F0000260426840F604739A434B6942EA134200
:103600008B681A4342608A68B2F5006F03D2426841
:1036100042F4805242600A6AB2F5005F02D1898C9E
:1036200089B201610022C16921F40061C1611046C3
:1036300010BD00000149086070470000EC00002048
:103640000A7B8B681A434B6822F480621A430B682A
:1036500022F400621A43CB8922F480521A430B6988
:1036600022F400521A43CB6A22F480421A434B6977
:1036700022F470221A438B6922F080521A430C4BB9
:10368000984202D00B4B98420FD14B6A22F4700241
:103690001A43CB6922F080721A430B6A22F000723F
:1036A0001A43896A22F000520A434264002070479C
:1036B000002C0140003401402DE9F0430268224B08
:1036C000224D234E234C4FF08049984207D0484565
:1036D00005D0A84203D0B04201D0A04203D14F6828
:1036E00022F070023A431C4FDFF870C0DFF87080A0
:1036F00098420DD048450BD0A84209D0B04207D01F
:10370000A04205D0B84203D0604501D0404503D166
:10371000CD6822F440722A4302608A68C2620A8835
:103720008262984207D0A04205D0B84203D06045DB
:1037300001D0404501D109690163416941F00101AE
:1037400041610020BDE8F083002C014000040040EE
:1037500000080040003401400040014000440140A6
:1037600000480140012922D0042922D0102922D06A
:10377000402922D0B1F5807F21D0B1F5806F20D0D3
:10378000B1F5805F1FD0B1F5804F1ED0B1F5803FFD
:103790001DD009210F4A1830525C104402680D4BAD
:1037A0000A335B5C042199408A4302607047002120
:1037B000F0E70121EEE70221ECE70321EAE704212B
:1037C000E8E70521E6E70621E4E70721E2E708212B
:1037D000E0E70000987F0008012922D0042922D0C8
:1037E000102922D0402922D0B1F5807F21D0B1F517
:1037F000806F20D0B1F5805F1FD0B1F5804F1ED013
:10380000B1F5803F1DD009210F4A1830525C104499
:1038100002680D4B0A335B5C082199400A43026041
:1038200070470021F0E70121EEE70221ECE70321D8
:10383000EAE70421E8E70521E6E70621E4E70721B6
:10384000E2E70821E0E70000987F00082DE9F04753
:103850008C460121BCF5805F25D009DCBCF1010F4D
:1038600014D0BCF1100F15D0BCF5807F16D116E036
:10387000424B434C434D444E444F4FF00009BCF57E
:10388000803F14D0BCF5801F74D141E0114600F098
:10389000CFFD02E0114600F017FE01466AE0114636
:1038A00000F062FEF9E7114600F0ACFEF5E7016AB0
:1038B00021F480310162D0F820C0016DDFF8D080A2
:1038C0002CF4003C01EA0801D2F80080984241EA59
:1038D0000801B2F810804CEA084CB2F804802CF4CD
:1038E000803C4CEA084C07D0A04205D0A84203D047
:1038F000B04201D0B84206D14368946923F48033C2
:1039000043EA042343600165D168826C81642EE040
:10391000016A21F480110162D0F820C0016DDFF846
:1039200074802CF4001C01EA0801D2F8008098424F
:1039300041EA0821B2F810804CEA085CB2F8048031
:103940002CF4801C4CEA085C07D0A04205D0A842A9
:1039500003D0B04201D0B84206D14368946923F441
:10396000802343EA842343600165D168C164C0F8C1
:1039700020C049460846BDE8F0870000002C014001
:103980000034014000400140004401400048014033
:103990008FFFFEFFFF8FFFFE2DE9F0410446006818
:1039A0000D46012610F0010F4CD12969A868EA697B
:1039B000084369691143084321682B4A11400843B1
:1039C0002060E868616821F4405101436160A869A2
:1039D000A16821F440710143A1602448844201D1CF
:1039E000032008E02248844201D10C2003E0214852
:1039F000844203D13020FFF75DFD05E01E4884427C
:103A000019D1C020FFF728FDA8B1696899B12A68CB
:103A10000026EB690B2A0ED8184FD2B2B3F5004F2F
:103A200057F82220B0FBF2F00FD000EB5100B0FBB2
:103A3000F1F080B2E0602888E16A80B221F00F01E5
:103A40000143E1623046BDE8F081400000EB5100E7
:103A5000B0FBF1F081B24FF6F07201EA0200C1F35F
:103A600042010843E6E70000F369FFEF0038014038
:103A70000044004000480040004C0040D47F000853
:103A800030B597B000241494159418216846169404
:103A9000FCF7D9FB10941194129413940694079494
:103AA000089418210AA80994FCF7CDFB4248FFF7B7
:103AB0006BFD4FF40050FFF70FFC0220FFF70CFCEA
:103AC00002200A9003200B900AA90E943B48FFF7AE
:103AD0001BFC3B4800680022C0F30220114600F0A6
:103AE0008DFC0146122001F01EFA122001F00EFAA0
:103AF0004FF0A0451494159414A928461694FFF786
:103B000063FB019402940394049469462846059447
:103B1000FFF770FB00212846FFF7B6FB286940F24B
:103B20000341884328614FF44030CDE9100410A9C7
:103B30002448FFF7F3FA8420CDE90604089406A987
:103B400028460994FFF712FBE8681F49084040F037
:103B50000040E860E86C20F4C07040F48070E864D5
:103B6000A8681A490840A860A8681949084040F0A8
:103B70008050A860174818490068B0FBF1F000EBCE
:103B8000800080000A21B0FBF1F000E0401E002818
:103B9000FCD1124C092122462846FFF708FB0022DF
:103BA00021462846FFF750FB7F2221462846FFF793
:103BB0005BFB17B030BD000002001C000004004891
:103BC0000CED00E000030050FFFFDF7FC0FFFF5F50
:103BD000C0FFFF7FEC000020400D030000106032AA
:103BE00030B593B0002410941194182106A81294B3
:103BF000FCF729FB0C940D940E94182168460F9441
:103C0000FCF721FB4C48FFF7BFFC4FF40050FFF7D7
:103C100063FB0420FFF760FB0220FFF75DFB202021
:103C20000325CDE90005694604944448FFF76CFB81
:103C30000420CDE90005694604944148FFF764FB80
:103C4000404800680022C0F30220114600F0D6FB75
:103C50000146122001F067F9122001F057F93A4DA0
:103C60001094119410A928461294FFF7ADFA079406
:103C7000089409940A9406A928460B94FFF7BAFA07
:103C800000212846FFF700FB286940F203418843E2
:103C9000286184200C900120CDE90D040CA9284650
:103CA0000F94FFF763FAE8682849084040F00040A5
:103CB000E860E86C20F4C07040F48070E864A868A4
:103CC00023490840A860A8682249084040F0805075
:103CD000A860214821490068B0FBF1F000EB8000AA
:103CE00080000A21B0FBF1F000E0401E0028FCD16A
:103CF0001B4C092122462846FFF759FA002221468B
:103D00002846FFF7A1FA7F2221462846FFF7ACFAA2
:103D1000144C40F20F1122462846FFF748FA0022C1
:103D200021462846FFF790FA7F2221462846FFF7D2
:103D30009BFA13B030BD000002001C0000080048D0
:103D4000000400480CED00E000010050FFFFDF7FA1
:103D5000C0FFFF5FC0FFFF7FEC000020400D0300AD
:103D60000008302E0010603230B51E4887B01C4964
:103D70000024C0E900148460C46004744474847432
:103D80000A210125C0E905150821C161C0E908150E
:103D90008562C562C0E90C51C0E90E14FEF7D8FE79
:103DA00008B1FEF713F900940194CDE9024504949B
:103DB00069460C480594FEF75AFD08B1FEF706F96E
:103DC0000848FFF72AF8012211460648FEF77DFD54
:103DD000002201210348FEF7B5FC07B030BD00000A
:103DE00000640040744000202DE9F04786B018219F
:103DF0006846FCF728FA0420FFF762FA2020FFF754
:103E00005FFA0120FFF75CFA0220FFF759FADFF8AA
:103E1000A0A04FF40050CAF828004FF090460821A7
:103E2000B162DFF890904710C9F828700121B161A4
:103E30001021B161009001250024CDE901540394C3
:103E4000694650460494FFF75FFA0095CDE90154A6
:103E50000394694630460494FFF756FA0820009010
:103E6000CDE901540394694630460494FFF74CFAB7
:103E70004FF01008CDF80080CDE901540394694655
:103E800030460494FFF740FACDE900846946504675
:103E90000495FFF739FA0097CDE901540394694678
:103EA00048460494FFF730FA06B0BDE8F0870000FA
:103EB00000080048000400482DE9F04391B0282193
:103EC00006A8FCF7C0F918216846FCF7BCF92C4895
:103ED000016E41F480510166006E00F48050109034
:103EE0000120FFF705FA2027022500240097CDE9DD
:103EF00001540526CDE904464FF0904969464846ED
:103F00000394FFF701FA40200090CDE901544FF0EF
:103F100001080596CDE9034869464846FFF7F4F9DC
:103F200080200090CDE90154CDE904466946484619
:103F30000394FFF7E9F94FF48270CDE9064008A930
:103F40004FF4706081E8110128020B900720CDE941
:103F50000C74CDE90E400B4C06A92046FFF72EFB52
:103F6000606820F010006060606820F00800606009
:103F7000206840F04000206011B0BDE8F0830000F0
:103F800000100240003001402DE9F04192B028219C
:103F900006A8FCF758F918216846FCF754F92D4893
:103FA0004FF48048816D41F480418165806D00F45B
:103FB000804010900220FFF79BF94FF400500090D2
:103FC00002250024CDE901540526234FCDE90446FE
:103FD000694638460394FFF797F9CDF80080CDE99C
:103FE0000154CDE90446694638460394FFF78CF93D
:103FF000A8030090CDE90154CDE90446694638464E
:104000000394FFF781F94FF48270CDE906404FF435
:104010007060CDE9080501200A9040020B90102045
:10402000CDE90C040720CDE90E400C4C06A9204632
:10403000FFF7C4FA606820F010006060606820F04C
:1040400008006060206840F04000206012B0BDE8C9
:10405000F0810000001002400004004800380040D9
:104060002DE9F041A0B014211AA8FCF7ECF82021AA
:1040700006A8FCF7E8F830210EA8FCF7E4F81821B0
:104080006846FCF7E0F85A4E306E40F40060306647
:10409000306E002400F400601F9040201B9040F61A
:1040A0004850CDE91C04534DADF868401AA9284684
:1040B0001E94FFF701FB286840F080002860A86884
:1040C0004D490840A86001212846FFF785FB602084
:1040D000CDE90604089409940A940B940C9406AA5A
:1040E000012128460D94FFF7B1FB01212846FFF777
:1040F00039FB10212846FFF76FFB06AA102128463E
:10410000FFF7A4FB10212846FFF72CFBAF1539461B
:104110002846FFF761FB06AA39462846FFF796FBBB
:1041200039462846FFF71EFB4FF480584146284683
:10413000FFF752FB40F63E50099006AA414628463A
:10414000FFF784FB41462846FFF70CFB68682B49C4
:10415000084040F070006860686820F47000686093
:10416000A86820F08000A8600E946814CDE91204BD
:104170000F948DF844401094ADF846400003149419
:10418000CDE91540179418940EA928461994FFF705
:1041900057FAF06C40F00100F064F06C009700F00A
:1041A00001001F900225CDE901540626CDE9044601
:1041B0004FF09047694638460394FFF7A5F8280268
:1041C0000090CDE90154CDE9044669463846039490
:1041D000FFF79AF868020090CDE90154CDE9044652
:1041E000694638460394FFF78FF820B0BDE8F081A8
:1041F00000100240002C0140F8BFFEFF8FFFFFFDC2
:1042000010B586B014216846FCF71DF82148816D71
:1042100041F010018165806D00F0100005901E488E
:104220000068C0F30220C0F10701042900D904216D
:10423000021D072A01D2002000E0C01E01228A4090
:10424000521E02F002018140144A0020090182F846
:104250000014124A4FF48001323AC2F80011019062
:10426000A9214FF47A700E4CADF800100290694607
:104270002046FFF721FA206840F080002060606847
:10428000084908406060A06820F08000A06006B087
:1042900010BD0000001002400CED00E036E000E030
:1042A000001000408FFFFFFDF0B58FB0202106A861
:1042B000FBF7C9FF18216846FBF7C5FF494850F8CE
:1042C000881F002421F00C0140F83C19C16841F41A
:1042D0000031C160C16801F400310E91016841F004
:1042E000020101600068022500F002000E90082023
:1042F0000090CDE9015403AA07263B4F82E87000E5
:1043000069463846FFF700F810200090CDE90154C7
:1043100003AA012582E8700069463846FEF7F4FFDB
:1043200032480068C0F30220C0F10701042900D917
:104330000421021D072A01D2002000E0C01E8D408A
:104340006D1E05F0030181400801294981F8000430
:10435000274940202239C1F800014FF4E130CDE96E
:1043600006400C20CDE90A40089409940C940D9461
:10437000204C06A92046FFF70FFB002204F108009D
:1043800050E8001F62F35F7140E80013002BF7D183
:10439000002204F1080100BF51E8000F20F0606026
:1043A00040EA426041E80003002BF5D1206820F08C
:1043B00000502060606820F490406060A06820F0A9
:1043C0002A00A060206840F001002060E069C0F38E
:1043D00040500028FAD0E069C0F380500028F5D0A2
:1043E0000FB0F0BD00100240000400480CED00E0EA
:1043F00026E000E000440040FEE7FEE730B500F0B4
:104400000703C3F10704042C00D90424181D07284E
:1044100001D2002300E0DB1E012505FA04F0401E56
:10442000084098409D406D1E1540284330BD000057
:1044300030B5026A22F001020262036A44688269AE
:104440001B4D22F003022A400D6823F002032A4389
:104450000D692B434D6823F001032B43154DA842F2
:104460000BD0154DA84208D0144DA84205D0144DCC
:10447000A84202D0134DA84212D14D6923F008037F
:1044800043EA85038D6823F0040343EA85038D69BD
:1044900024F480742C43CD6924F4007444EA450468
:1044A00044608261C96841630362002030BD00003E
:1044B0008FFFFEFF002C014000340140004001400E
:1044C000004401400048014030B5026A22F0100269
:1044D0000262056A426883691D4C23F440732340DD
:1044E0000C6843EA042425F020030D6943EA051310
:1044F0004D6823F0100343EA0513164DA8420BD074
:10450000154DA84208D0154DA84205D0144DA8421B
:1045100002D0144DA84213D14D6923F0800343EA21
:1045200085138D6823F0400343EA85138D6922F4D7
:10453000806242EA8502CD6922F4006242EAC50245
:1045400042608461C96881630362002030BD00005D
:10455000FF8FFFFE002C014000340140004001406D
:10456000004401400048014030B5026A22F48072E4
:104570000262046A4368C2691C4D22F003022A40A9
:104580000D6824F400742A430D6944EA05244D683B
:1045900024F4807444EA0524154DA8420BD0154D2F
:1045A000A84208D0144DA84205D0144DA84202D00C
:1045B000134DA84213D14D6924F4006444EA8524C4
:1045C0008D6824F4806444EA85248D6923F4805343
:1045D00043EA0513CD6923F4005343EA45134360CE
:1045E000C261C968C1630462002030BD8FFFFEFF55
:1045F000002C0140003401400040014000440140D3
:104600000048014030B5026A22F480520262056A15
:104610004268C3691D4C23F4407323400C6843EA8D
:10462000042425F400530D6943EA05334D6823F44F
:10463000805343EA0533164DA8420BD0154DA842CE
:1046400008D0154DA84205D0144DA84202D0144DF3
:10465000A84213D14D6923F4004343EA85338D68A2
:1046600023F4804343EA85338D6922F4804242EA91
:104670008512CD6922F4004242EAC5124260C4614B
:10468000C96801640362002030BD0000FF8FFFFE97
:10469000002C014000340140004001400044014032
:1046A0000048014010B5FDF766FA094940F2A460E0
:1046B0000860091F0860091F086005486FF00101C4
:1046C0003C380161026912F0010FFBD0016110BD9D
:1046D0003C2C0140094940F2A4600860091F0860B1
:1046E000091F086005486FF001013C38016102694B
:1046F00012F0010FFBD00161FDF74ABA3C2C0140DA
:104700007047000005498968054A01F0F001090970
:10471000515C01F01F01C8407047000000100240CA
:10472000BC7F000805498968054A01F4E06102EB95
:104730001121097801F01F01C840704700100240A4
:10474000CC7F000805498968054A01F4605102EBF5
:10475000D121097801F01F01C840704700100240C4
:10476000CC7F00081549886800F00C031448042B1E
:104770000DD04210082B09D00C2B08D1CB6803F0C8
:104780000303022B05D0032B03D101E01046704731
:104790001046CA68C2F306224243C868C96800F0DE
:1047A000F003012000EB1313B2FBF3F201F0C06140
:1047B00000EB51604000B2FBF0F070470010024087
:1047C0000024F40008B50846694603F0B1F8BDF8C6
:1047D000000008BD704730B504464FF47A7502E01A
:1047E000284600F003F8641EFAD230BDF0B54FF051
:1047F000E0240021A3690C4EAA25A269934202D9A4
:10480000A3EB020303E003D2A6EB02073B441944E7
:104810001346B1FBF5F2824205D2801AB1FBF5F2E4
:1048200005FB1211E9E7F0BD109802000149096883
:10483000081A704700000020014800687047000017
:10484000000000204FF0E0210F4848610F48006849
:10485000C0F30220C0F10702042A00D90422031D7C
:10486000072B01D2002000E0C01E012393405B1EF5
:1048700003F002028240064B0020120183F8142D3F
:1048800088610720086170470F9802000CED00E076
:104890000FE000E002480168491C01607047000019
:1048A0000000002038B52D48016821F00F0141F0CB
:1048B00004010160016801F00F010429FAD12848C0
:1048C00050F8801F21F480710160264C206840F46C
:1048D000807020602068C0F380200028FAD06068D3
:1048E00020F0FE4040F080406060E16845F23250C8
:1048F0001D4A11400843E060E06840F08070E060CD
:10490000206840F0807020602068C0F3406000287C
:10491000FAD0A06840F00300A0608020FEF744FEBB
:10492000A06800F00C000C28FAD155200090401E21
:104930000090FCD1FEF738FEA06820F4E060A06093
:10494000A06820F46050A060084C2046FEF777FD78
:104950002046BDE83840FEF76DBE00000020024052
:1049600000700040001002400C80FFF980FE210A18
:104970000248016841F470010160704788ED00E071
:104980000E48016911F0010F16D06FF001010161AD
:104990000B480168491C01600A49087800280BD1BE
:1049A00009480088002807D0084A1068401C106099
:1049B000322801D901200870704700000010004023
:1049C00004000020D2000020D0000020D4000020ED
:1049D0003349DFED320AB5EEC00AD1ED001A91ED90
:1049E000021A3048F1EE10FA02D2C0ED001A16E0B9
:1049F00091ED062AF6EE002AB4EEC20AF1EE10FAA4
:104A000013D2D1ED030A41EE001A20EEA22A60EE85
:104A1000002A00EE801A42EE221AC0ED001A80ED44
:104A2000011A00BFC0ED020A704791ED071A32EE7D
:104A3000011AB4EEC01AF1EE10FA0ADD70EE421A55
:104A400091ED091A91ED040A00EE211A80ED001A89
:104A500017E0D0ED031A124AF4EEC01A92ED011AD3
:104A6000F1EE10FA10DD30EE610AD1ED050A60EECC
:104A7000A21A20EE002A20EE800A01EE821A80EDB2
:104A8000001A80ED010ACDE7F4EEC01AF1EE10FA3B
:104A9000CAD880ED001AC0ED010AC3E7000000008B
:104AA000A8000020BC3F002010B52DED0A8BB0EE11
:104AB00062BAF0EE418AB0EE00CAB0EE609A68EEDB
:104AC000A8BA6BEE0C0AF0EE40AA84B0B0EE42AA8F
:104AD0008BEEA00AF0EE61CA7AEEC99A10EE100AC7
:104AE000FBF7F5FBCDE9020118EE900AFBF7EFFBAF
:104AF000CDE900010399019861F31E0003909DED3B
:104B0000020B51EC100BFBF7F5FB00EE100A39EE2F
:104B1000C00A10EE100A002802DABFEE008A01E097
:104B2000B7EE008A5F4C28EE0A0A28EE281A68EED3
:104B30004B0A84ED030A28EE2C0AC4ED050A84ED25
:104B4000040A68EE001AB4EEE11AF1EE10FA03DD81
:104B500028EE4A1A84ED031A30EE682A94ED031AFF
:104B6000F1EE402AB6EE00AAC2EE011A82EEA02AA9
:104B700070EE282AC4ED061A61EE8A1A61EEA21AB6
:104B800084ED082A22EE0A2A42EE001A28EE292A8B
:104B900068EE212AB4EEE22AF1EE10FA58D221EEA4
:104BA0000C0A6BEEA01A20EE200A70EEC10A40EE4D
:104BB000291A81EEA00A10EE100AFBF788FB9FED80
:104BC0003ABB41EC100BB0EE4B1AF0EE6B1A00F052
:104BD000DBF951EC100BFBF78DFB00EE100A00F037
:104BE000D7FA20EE088A84ED048A78EE680A94EDFC
:104BF000031A80EE810A10EE100AFBF768FB41EC05
:104C0000110BB0EE4B0AF0EE6B0A00F0BDF951EC5F
:104C1000100BFBF76FFBA06194ED051AF1EE480A4B
:104C200080EE810A10EE100AFBF751FB41EC110BEC
:104C3000B0EE4B0AF0EE6B0A00F0A6F951EC100B47
:104C4000FBF758FB9FED1A0A206284ED070A05E086
:104C500079EEE10A80EE801A84ED071A94ED060AD7
:104C6000D4ED070A94ED081A124870EE200A70EE8F
:104C7000810AC0ED030A84ED009AC4ED01AAC4EDD7
:104C8000028AD4ED030A08EE809A20EE000A60EE54
:104C90008A0A00EE809A84ED099A04B0BDEC0A8B72
:104CA00010BD0000A800002000000000000000006F
:104CB00000000000BC3F00200948C169C1F3401159
:104CC00000290CD0406A074AC1B21088802806D259
:104CD000054B1954401C054910800020086070479E
:104CE00000440040D0000020F43F0020D400002009
:104CF00010B500244FF4C4720C490D48FBF78AFA32
:104D000000224FF4C2710A4801F032F80849D1F884
:104D10008421824200D0641ED1F868010F2802DD90
:104D20000F20C1F86801204610BD000000E0010816
:104D3000CC0100202DE9FC47EFF3108572B6FDF79A
:104D400013FA01213C20FDF781F9060001D01CA0D7
:104D500029E000224FF4C271204801F009F81F49F0
:104D6000DFF87C800F4600244FF4C479C1F8840139
:104D70004FF0FF30CDE90000C4F5C472082A05DB0E
:104D80003819016800914068019003E039196846BC
:104D9000FBF740FADDE9002304EB0800FDF7C8F952
:104DA000060003D00FA000F0A1F802E008344C4543
:104DB000DED3FDF7AFF985F310883046BDE8FC87F8
:104DC000464C4153485F65726173655F706167650A
:104DD000204572726F720A0D00000000CC010020A5
:104DE00000E00108464C4153485F70726F67726182
:104DF0006D204572726F720A0D0000002C48072169
:104E00009FED2C0A40F8F41B002100ED3C0A9FEDB9
:104E10002A0A052200ED3B0A9FED280ADFED2B0A46
:104E200000ED3A0A9FED260A416280ED0A0AB2EED1
:104E3000040A80ED0B0AB0EE000A026380ED0D0A51
:104E40009FED200A4FF47A7280ED0E0A80ED0F0A72
:104E50009FED1D0A80ED100A80ED110AC0ED120AC7
:104E6000DFED1B0AC0ED130ADFED1A0AC0ED140ACC
:104E7000DFED190AC0ED150AF3EE040AC0ED160ABB
:104E8000DFED160A4266C0ED1A0ADFED150A372279
:104E9000C0ED1B0A80ED1C0AC0E91D219FED110A1F
:104EA000C16780ED210A80ED220A80ED230A704758
:104EB000CC0100200953243E8BE1EA376F12833A7C
:104EC0009A99993F000048420000C84200002043E0
:104ED000CDCC4C3F0AD7A33D0000B442333333411D
:104EE0000000204200000000FEE700000FB4054B68
:104EF00010B503A9044A029800F056FA10BC5DF8F8
:104F000014FB0000F1620008F0000020002809DB1B
:104F100000F01F02012191404009800000F1E020D3
:104F2000C0F8001170470907090E002804DB00F1E2
:104F3000E02080F80014704700F00F0000F1E0203E
:104F400080F8141D7047000000487047F4000020EE
:104F500030B583B0044600F041F99FED090B0546DA
:104F60008DED000B002221466846FBF752FA2846D9
:104F700000F04AF99DED000B03B030BD00000000C9
:104F8000000000000000000000B52DED048BB0EE25
:104F9000418AF0EE618AB0EE409AF0EE609A83B0FA
:104FA00053EC182B51EC190BFBF712FD00F070407D
:104FB000B0F1005F1AD018EE101A18EE900A8DEDBD
:104FC000008B002918BF0121084320F00040C0F1E8
:104FD0007F6000F1E040C00F01BFB0EE480AF0EE84
:104FE000680A03B0BDEC048B08BF00BDB0EE490AEF
:104FF00003B0F0EE690ABDEC048B00BD10B52DEDD9
:10500000028BF0EE408A18EE900AB0EE608A20F033
:105010000040C0F1FF40C00F07D118EE100A20F089
:105020000040C0F1FF40C00F2BD018EE101A18EE50
:10503000900AFBF790FA00EE100A10EE100A6FEAE1
:10504000D05010F0FF0F04BFBDEC028B10BD18EE66
:10505000900A00F0004110EE100A00F0004081427A
:1050600004BFBDEC028B10BD18EE101A10EE100A32
:10507000BDEC028B61F31E0000EE900A30EE600A78
:1050800010BD18EE900A4FF07F41B1EB400F1CBFEE
:1050900018EE100A5FEA4000C7D1012000F0B4F812
:1050A000BDEC028BBDE8104000F090B8000000009D
:1050B00010B52DED020B2DED088B84B09DED0C0B82
:1050C00051EC100BFBF7F8FB41EC180B9DED0C0BB2
:1050D00053EC182B51EC100BFBF707FB41EC190BB1
:1050E0000D989FED290B10F0004F53EC102B51EC55
:1050F000190B9FED21AB9FED22BB0ED0FBF738FCC7
:105100000ED953EC1B2B51EC190BFBF749FC1CD2AD
:1051100014E000BF41EC180B17E0FBF729FC06D2A6
:1051200053EC1A2B51EC180BFBF7DFFAF2E753ECB8
:105130001B2B51EC190BFBF733FC06D853EC1A2B45
:1051400051EC180BFBF730FAE4E78DED028B9DED87
:105150000C0B18EE901A10EE900A8DED000B61F317
:105160001E0003909DED020B04B0BDEC088B02B055
:1051700010BD000000000000000000000000F03F33
:10518000000000000000E03F000000000000E0BF61
:1051900010B52DED028BB1EEC08A18EE100A20F08A
:1051A0000040C0F1FF40C00F0AD010EE100A20F0FE
:1051B0000040C0F1FF40C00F04BF012000F024F800
:1051C000B0EE480ABDEC028B10BD0000DFED020A14
:1051D00080EEA00A7047000000000000014800684F
:1051E00070470000F400002002E008C8121F08C148
:1051F000002AFAD170477047002001E001C1121F58
:10520000002AFBD170470000014908607047000088
:10521000F40000202DE9FF5F82B00021DDE90430B9
:10522000020DDDF840B0034318D044F61050A2F24E
:10523000FF3242431514119801281FD0A5EB0B0033
:10524000401C5FEA000A4FF000064E4FDFF838912D
:10525000B046504615D5CAF1000413E01198012458
:105260004AA3012801D16FEA0B010298119AC0E903
:105270000031C0E9024206B0BDE8F09FCBF100006A
:10528000DFE704460021404A491842EB0450CDE9CB
:10529000001012E0E00707D032463B464046494640
:1052A000FBF729FA8046894632463B4610461946A6
:1052B000FBF721FA06460F466410002CEAD1DDE91F
:1052C0000401DDE90023BAF1000F06DAFBF713FA57
:1052D00042464B46FBF70FFA05E0FBF77EFA4246E3
:1052E0004B46FBF77AFA04460E460022284BFBF7A2
:1052F00057FB03D84FF0FF30014607E00022254B53
:1053000020463146FBF750F9FBF71AFB102409E061
:10531000002C0ADB0A220023FBF71EF8039B303225
:105320001A55641E50EA0102F2D1641C039AC4F1BA
:1053300011031444119A012A03D0012208430DD10C
:105340000AE0084304D000204FF0110B119072E7DF
:10535000A3EB0B056D1E0DE05B4504DD4FF0000275
:1053600005F1010504E003DA4FF00002A5F10105A3
:10537000002AECD002981199C0E90231C0E9004539
:1053800079E70000000014400000F03F300000000A
:105390000000F0430000E03F30380A2801D201202D
:1053A00070470020704700002DE9FF4F95B09A46E6
:1053B000884606460025EEE1252877D100242746B9
:1053C000F94A0121039400E0044316F8013F203B11
:1053D00001FA03F01042F7D130782A2811D06FF08B
:1053E0002F033078A0F13002092A16D8039A44F02E
:1053F000020402EB820203EB42021044761C03908B
:10540000EFE758F8042B0392002A03DA504244F4E1
:105410000054039044F00204761C30782E2816D1F4
:1054200016F8010F44F004042A280DD06FF02F0263
:105430003078A0F13003092B09D807EB870302EB82
:105440004303C718761CF3E758F8047B761C3078C2
:105450006C280FD006DC4C2817D068280DD06A289D
:1054600014D104E0742810D07A280FD10DE044F450
:1054700000140AE044F4801401E044F4401472780B
:10548000824202D104F58014761C761C307866289E
:105490000BD013DC582877D009DC002875D04528BC
:1054A000F6D04628F4D047281AD193E118E06328B3
:1054B00035D0642879D0652812D18BE1702873D05B
:1054C00008DC6728F1D069286FD06E280DD06F28CE
:1054D00006D1ACE073282CD0752874D0782853D02E
:1054E0005246179990476D1C54E1C4F302500228AC
:1054F00009D003280DD0D8F8001004280DD00D6075
:1055000008F1040846E1D8F80010EA17C1E9005292
:10551000F6E7D8F800100D80F2E70D70F0E718F804
:10552000041B8DF8001000208DF80100EB460120CF
:1055300003E058F804BB4FF0FF3061074FF0000163
:1055400002D40DE009F101018946B9420FDA814523
:10555000F8DB1BF809100029F4D108E009F101017A
:1055600089468142FADB1BF809100029F6D103981D
:105570005346A0EB090721463846179A00F080FAF7
:10558000284400EB090507E044E008E10DE01BF8C2
:10559000010B524617999047B9F10109F7D25346CA
:1055A00021463846179AF2E039E00A21C4F3025244
:1055B0004FF0000B0091022A06D058F8040BC117D7
:1055C000032A09D00AE023E008F1070020F00702CF
:1055D000F2E80201904605E000B2C117042A01D1A9
:1055E00040B2C117002906DA0A460021404261EBA9
:1055F00002012D2202E0220504D52B228DF8042081
:10560000012203E0E20701D02022F7E7914657E0AC
:105610000A2100E010214FF0000B00910BE0102157
:105620004FF0000B44F004040827009103E0082029
:105630004FF0000B0090C4F30252022A05D058F834
:10564000040B0021032A08D008E008F1070020F02D
:105650000702F2E80201904603E080B2042A00D17A
:10566000C0B24FF0000922072AD53278702A07D03D
:10567000DDF800C08CF0100C5CEA0B0C05D00EE0DD
:1056800040228DF80420012208E050EA010306D0F0
:1056900030238DF804308DF8052002229146009BBE
:1056A00083F0080353EA0B030AD150EA010201D147
:1056B000620705D530228DF804204FF001097F1EC6
:1056C0003278582A04D039A20C920CAA02920BE02C
:1056D0003BA2F9E75B46009AFAF73EFE0C9B9B5C07
:1056E000029A521E0292137050EA0102F2D10298FD
:1056F00004A9081A00F1200B600702D524F48034B5
:1057000000E001275F4502DDA7EB0B0000E0002071
:1057100000EB0B01009003984944401A0390E0030A
:1057200006D453462146179A039800F0A9F9054478
:10573000002706E001A85246C05D179990476D1CEE
:105740007F1C4F45F6DBE0030CD553462146179AE4
:10575000039800F095F9054404E03020524617996B
:1057600090476D1C0099481E00900029F5DC08E068
:105770000298029952460078491C02911799904765
:105780006D1CBBF10001ABF1010BF1DC5BE100F042
:1057900065F90544761C307800287FF40DAE19B009
:1057A0002846BDE8F08F000009280100303132336F
:1057B000343536373839616263646566000000004D
:1057C0003031323334353637383941424344454637
:1057D00000000000600700D4062708F1070020F051
:1057E0000700F0E80223804603F0004C5FEA0C005B
:1057F00001D097A009E0200501D596A005E0E007BB
:1058000001D095A001E0AFF24C001390307823F066
:10581000004365280CD006DC452809D046281DD059
:1058200047287FD13BE0662818D067287AD136E038
:105830000021112F01DB112000E0781CCDE90001CF
:1058400004A90CA8FFF7E6FCDDE90D010C9A4FF066
:10585000000B07F10109109200914EE04FF000405B
:105860000097CDE9011004A90CA8FFF7D3FCDDE9EE
:105870000D020C9B0F994FF0000B91461093009274
:1058800011B9791C00EB0109B7EB090003D4C0F191
:10589000FF3B07F10109A9EB0700019042E0012F4E
:1058A00000DA01270021112F01DD112000E0384628
:1058B000CDE9000104A90CA8FFF7ACFCDDE90D015E
:1058C0000C9A00914FF0000BB946109221070FD4AB
:1058D000009A4A4503DA914601E0A9F10109B9F1BC
:1058E000010F05DD109AA9F10101515C3029F4D0B6
:1058F000B84202DA10F1040F03DA0121CDE90110F8
:1059000010E0002803DC8344A9EB000102E0411C05
:10591000494500DD8946A0EB0B00401C01904FF08B
:1059200000400290200705D40198484502DB4FF063
:10593000FF30019000208DF84B0002980DF14B07CD
:10594000B0F1004F25D002200C902B200D90029832
:1059500000280CDA404202902D200D9007E00A2129
:105960000298FAF7E3FC3031029007F8011D0C9918
:10597000481E0C900029F2DC02980028EFD1791E15
:105980000D980870307800F0200040F0450007F8CE
:10599000020D11A8C01BC01D02901398007800B121
:1059A000012000EB0901019801EBE071029801442C
:1059B0000398401A401E0390E00306D45346214644
:1059C000179A039800F05CF805441398007818B112
:1059D0005246179990476D1CE00323D55346214644
:1059E000179A039800F04CF805441BE0BBF1000F38
:1059F00007DB0098584504DD1098179910F80B0044
:105A000001E0179930205246904701980BF1010BA5
:105A1000401E05F10105019004D12E205246179930
:105A200090476D1CB9F10001A9F10109DEDC05E028
:105A300017F8010B5246179990476D1C0299481EA2
:105A400002900029F4DC53462146179A03989EE6FB
:105A50002D0000002B000000200000002DE9F04187
:105A6000044600251E461746880404D405E039463E
:105A70002020B0476D1C641EF9D52846BDE8F08192
:105A80002DE9F041044600251E469046C80301D585
:105A9000302700E02027880404D505E04146384639
:105AA000B0476D1C641EF9D52846BDE8F0810000A2
:105AB00000B5B7EE002A2DED048BB0EE619A85B0EB
:105AC000DFED2B1A60EE211A82EE210A60EE208AA9
:105AD00020EE018A28EEA80A08EE080AFFF758FB14
